{
  "_format": "hh-sol-artifact-1",
  "contractName": "KoiCert",
  "sourceName": "contracts/KoiCert.sol",
  "abi": [
    {
      "anonymous": false,
      "inputs": [
        {
          "indexed": true,
          "internalType": "string",
          "name": "id",
          "type": "string"
        },
        {
          "indexed": false,
          "internalType": "string",
          "name": "variety",
          "type": "string"
        },
        {
          "indexed": true,
          "internalType": "address",
          "name": "issuer",
          "type": "address"
        }
      ],
      "name": "KoiMinted",
      "type": "event"
    },
    {
      "inputs": [
        {
          "internalType": "string",
          "name": "_id",
          "type": "string"
        }
      ],
      "name": "getKoi",
      "outputs": [
        {
          "components": [
            {
              "internalType": "string",
              "name": "id",
              "type": "string"
            },
            {
              "internalType": "string",
              "name": "variety",
              "type": "string"
            },
            {
              "internalType": "string",
              "name": "breeder",
              "type": "string"
            },
            {
              "internalType": "string",
              "name": "gender",
              "type": "string"
            },
            {
              "internalType": "string",
              "name": "age",
              "type": "string"
            },
            {
              "internalType": "uint256",
              "name": "size",
              "type": "uint256"
            },
            {
              "internalType": "string",
              "name": "condition",
              "type": "string"
            },
            {
              "internalType": "string",
              "name": "photoUrl",
              "type": "string"
            },
            {
              "internalType": "string",
              "name": "certUrl",
              "type": "string"
            },
            {
              "internalType": "string",
              "name": "contestUrl",
              "type": "string"
            },
            {
              "internalType": "uint256",
              "name": "timestamp",
              "type": "uint256"
            },
            {
              "internalType": "address",
              "name": "issuer",
              "type": "address"
            }
          ],
          "internalType": "struct KoiCert.KoiData",
          "name": "",
          "type": "tuple"
        }
      ],
      "stateMutability": "view",
      "type": "function"
    },
    {
      "inputs": [
        {
          "internalType": "string",
          "name": "",
          "type": "string"
        }
      ],
      "name": "koiRegistry",
      "outputs": [
        {
          "internalType": "string",
          "name": "id",
          "type": "string"
        },
        {
          "internalType": "string",
          "name": "variety",
          "type": "string"
        },
        {
          "internalType": "string",
          "name": "breeder",
          "type": "string"
        },
        {
          "internalType": "string",
          "name": "gender",
          "type": "string"
        },
        {
          "internalType": "string",
          "name": "age",
          "type": "string"
        },
        {
          "internalType": "uint256",
          "name": "size",
          "type": "uint256"
        },
        {
          "internalType": "string",
          "name": "condition",
          "type": "string"
        },
        {
          "internalType": "string",
          "name": "photoUrl",
          "type": "string"
        },
        {
          "internalType": "string",
          "name": "certUrl",
          "type": "string"
        },
        {
          "internalType": "string",
          "name": "contestUrl",
          "type": "string"
        },
        {
          "internalType": "uint256",
          "name": "timestamp",
          "type": "uint256"
        },
        {
          "internalType": "address",
          "name": "issuer",
          "type": "address"
        }
      ],
      "stateMutability": "view",
      "type": "function"
    },
    {
      "inputs": [
        {
          "internalType": "string",
          "name": "_id",
          "type": "string"
        },
        {
          "internalType": "string",
          "name": "_variety",
          "type": "string"
        },
        {
          "internalType": "string",
          "name": "_breeder",
          "type": "string"
        },
        {
          "internalType": "string",
          "name": "_gender",
          "type": "string"
        },
        {
          "internalType": "string",
          "name": "_age",
          "type": "string"
        },
        {
          "internalType": "uint256",
          "name": "_size",
          "type": "uint256"
        },
        {
          "internalType": "string",
          "name": "_condition",
          "type": "string"
        },
        {
          "internalType": "string",
          "name": "_photoUrl",
          "type": "string"
        },
        {
          "internalType": "string",
          "name": "_certUrl",
          "type": "string"
        },
        {
          "internalType": "string",
          "name": "_contestUrl",
          "type": "string"
        }
      ],
      "name": "mintCertificate",
      "outputs": [],
      "stateMutability": "nonpayable",
      "type": "function"
    }
  ],
  "bytecode": "0x6080604052348015600f57600080fd5b50611a318061001f6000396000f3fe608060405234801561001057600080fd5b50600436106100415760003560e01c80633daa0a5d146100465780635becd7c014610081578063657a310f1461009d575b600080fd5b610060600480360381019061005b9190611054565b6100cd565b6040516100789c9b9a99989796959493929190611176565b60405180910390f35b61009b6004803603810190610096919061129b565b61062b565b005b6100b760048036038101906100b29190611054565b6108be565b6040516100c4919061161a565b60405180910390f35b6000818051602081018201805184825260208301602085012081835280955050505050506000915090508060000180546101069061166b565b80601f01602080910402602001604051908101604052809291908181526020018280546101329061166b565b801561017f5780601f106101545761010080835404028352916020019161017f565b820191906000526020600020905b81548152906001019060200180831161016257829003601f168201915b5050505050908060010180546101949061166b565b80601f01602080910402602001604051908101604052809291908181526020018280546101c09061166b565b801561020d5780601f106101e25761010080835404028352916020019161020d565b820191906000526020600020905b8154815290600101906020018083116101f057829003601f168201915b5050505050908060020180546102229061166b565b80601f016020809104026020016040519081016040528092919081815260200182805461024e9061166b565b801561029b5780601f106102705761010080835404028352916020019161029b565b820191906000526020600020905b81548152906001019060200180831161027e57829003601f168201915b5050505050908060030180546102b09061166b565b80601f01602080910402602001604051908101604052809291908181526020018280546102dc9061166b565b80156103295780601f106102fe57610100808354040283529160200191610329565b820191906000526020600020905b81548152906001019060200180831161030c57829003601f168201915b50505050509080600401805461033e9061166b565b80601f016020809104026020016040519081016040528092919081815260200182805461036a9061166b565b80156103b75780601f1061038c576101008083540402835291602001916103b7565b820191906000526020600020905b81548152906001019060200180831161039a57829003601f168201915b5050505050908060050154908060060180546103d29061166b565b80601f01602080910402602001604051908101604052809291908181526020018280546103fe9061166b565b801561044b5780601f106104205761010080835404028352916020019161044b565b820191906000526020600020905b81548152906001019060200180831161042e57829003601f168201915b5050505050908060070180546104609061166b565b80601f016020809104026020016040519081016040528092919081815260200182805461048c9061166b565b80156104d95780601f106104ae576101008083540402835291602001916104d9565b820191906000526020600020905b8154815290600101906020018083116104bc57829003601f168201915b5050505050908060080180546104ee9061166b565b80601f016020809104026020016040519081016040528092919081815260200182805461051a9061166b565b80156105675780601f1061053c57610100808354040283529160200191610567565b820191906000526020600020905b81548152906001019060200180831161054a57829003601f168201915b50505050509080600901805461057c9061166b565b80601f01602080910402602001604051908101604052809291908181526020018280546105a89061166b565b80156105f55780601f106105ca576101008083540402835291602001916105f5565b820191906000526020600020905b8154815290600101906020018083116105d857829003601f168201915b50505050509080600a01549080600b0160009054906101000a900473ffffffffffffffffffffffffffffffffffffffff1690508c565b6000808b60405161063c91906116d8565b908152602001604051809103902060000180546106589061166b565b90501461069a576040517f08c379a00000000000000000000000000000000000000000000000000000000081526004016106919061173b565b60405180910390fd5b60006040518061018001604052808c81526020018b81526020018a81526020018981526020018881526020018781526020018681526020018581526020018481526020018381526020014281526020013373ffffffffffffffffffffffffffffffffffffffff1681525090508060008c60405161071791906116d8565b9081526020016040518091039020600082015181600001908161073a9190611907565b5060208201518160010190816107509190611907565b5060408201518160020190816107669190611907565b50606082015181600301908161077c9190611907565b5060808201518160040190816107929190611907565b5060a0820151816005015560c08201518160060190816107b29190611907565b5060e08201518160070190816107c89190611907565b506101008201518160080190816107df9190611907565b506101208201518160090190816107f69190611907565b5061014082015181600a015561016082015181600b0160006101000a81548173ffffffffffffffffffffffffffffffffffffffff021916908373ffffffffffffffffffffffffffffffffffffffff1602179055509050503373ffffffffffffffffffffffffffffffffffffffff168b60405161087291906116d8565b60405180910390207f0fa00982760dccf326d20e0def5bd3a23183e0fa872e8c69c73ef16266236f5e8c6040516108a991906119d9565b60405180910390a35050505050505050505050565b6108c6610e83565b6000826040516108d691906116d8565b9081526020016040518091039020604051806101800160405290816000820180546109009061166b565b80601f016020809104026020016040519081016040528092919081815260200182805461092c9061166b565b80156109795780601f1061094e57610100808354040283529160200191610979565b820191906000526020600020905b81548152906001019060200180831161095c57829003601f168201915b505050505081526020016001820180546109929061166b565b80601f01602080910402602001604051908101604052809291908181526020018280546109be9061166b565b8015610a0b5780601f106109e057610100808354040283529160200191610a0b565b820191906000526020600020905b8154815290600101906020018083116109ee57829003601f168201915b50505050508152602001600282018054610a249061166b565b80601f0160208091040260200160405190810160405280929190818152602001828054610a509061166b565b8015610a9d5780601f10610a7257610100808354040283529160200191610a9d565b820191906000526020600020905b815481529060010190602001808311610a8057829003601f168201915b50505050508152602001600382018054610ab69061166b565b80601f0160208091040260200160405190810160405280929190818152602001828054610ae29061166b565b8015610b2f5780601f10610b0457610100808354040283529160200191610b2f565b820191906000526020600020905b815481529060010190602001808311610b1257829003601f168201915b50505050508152602001600482018054610b489061166b565b80601f0160208091040260200160405190810160405280929190818152602001828054610b749061166b565b8015610bc15780601f10610b9657610100808354040283529160200191610bc1565b820191906000526020600020905b815481529060010190602001808311610ba457829003601f168201915b5050505050815260200160058201548152602001600682018054610be49061166b565b80601f0160208091040260200160405190810160405280929190818152602001828054610c109061166b565b8015610c5d5780601f10610c3257610100808354040283529160200191610c5d565b820191906000526020600020905b815481529060010190602001808311610c4057829003601f168201915b50505050508152602001600782018054610c769061166b565b80601f0160208091040260200160405190810160405280929190818152602001828054610ca29061166b565b8015610cef5780601f10610cc457610100808354040283529160200191610cef565b820191906000526020600020905b815481529060010190602001808311610cd257829003601f168201915b50505050508152602001600882018054610d089061166b565b80601f0160208091040260200160405190810160405280929190818152602001828054610d349061166b565b8015610d815780601f10610d5657610100808354040283529160200191610d81565b820191906000526020600020905b815481529060010190602001808311610d6457829003601f168201915b50505050508152602001600982018054610d9a9061166b565b80601f0160208091040260200160405190810160405280929190818152602001828054610dc69061166b565b8015610e135780601f10610de857610100808354040283529160200191610e13565b820191906000526020600020905b815481529060010190602001808311610df657829003601f168201915b50505050508152602001600a8201548152602001600b820160009054906101000a900473ffffffffffffffffffffffffffffffffffffffff1673ffffffffffffffffffffffffffffffffffffffff1673ffffffffffffffffffffffffffffffffffffffff16815250509050919050565b6040518061018001604052806060815260200160608152602001606081526020016060815260200160608152602001600081526020016060815260200160608152602001606081526020016060815260200160008152602001600073ffffffffffffffffffffffffffffffffffffffff1681525090565b6000604051905090565b600080fd5b600080fd5b600080fd5b600080fd5b6000601f19601f8301169050919050565b7f4e487b7100000000000000000000000000000000000000000000000000000000600052604160045260246000fd5b610f6182610f18565b810181811067ffffffffffffffff82111715610f8057610f7f610f29565b5b80604052505050565b6000610f93610efa565b9050610f9f8282610f58565b919050565b600067ffffffffffffffff821115610fbf57610fbe610f29565b5b610fc882610f18565b9050602081019050919050565b82818337600083830152505050565b6000610ff7610ff284610fa4565b610f89565b90508281526020810184848401111561101357611012610f13565b5b61101e848285610fd5565b509392505050565b600082601f83011261103b5761103a610f0e565b5b813561104b848260208601610fe4565b91505092915050565b60006020828403121561106a57611069610f04565b5b600082013567ffffffffffffffff81111561108857611087610f09565b5b61109484828501611026565b91505092915050565b600081519050919050565b600082825260208201905092915050565b60005b838110156110d75780820151818401526020810190506110bc565b60008484015250505050565b60006110ee8261109d565b6110f881856110a8565b93506111088185602086016110b9565b61111181610f18565b840191505092915050565b6000819050919050565b61112f8161111c565b82525050565b600073ffffffffffffffffffffffffffffffffffffffff82169050919050565b600061116082611135565b9050919050565b61117081611155565b82525050565b6000610180820190508181036000830152611191818f6110e3565b905081810360208301526111a5818e6110e3565b905081810360408301526111b9818d6110e3565b905081810360608301526111cd818c6110e3565b905081810360808301526111e1818b6110e3565b90506111f060a083018a611126565b81810360c083015261120281896110e3565b905081810360e083015261121681886110e3565b905081810361010083015261122b81876110e3565b905081810361012083015261124081866110e3565b9050611250610140830185611126565b61125e610160830184611167565b9d9c50505050505050505050505050565b6112788161111c565b811461128357600080fd5b50565b6000813590506112958161126f565b92915050565b6000806000806000806000806000806101408b8d0312156112bf576112be610f04565b5b60008b013567ffffffffffffffff8111156112dd576112dc610f09565b5b6112e98d828e01611026565b9a505060208b013567ffffffffffffffff81111561130a57611309610f09565b5b6113168d828e01611026565b99505060408b013567ffffffffffffffff81111561133757611336610f09565b5b6113438d828e01611026565b98505060608b013567ffffffffffffffff81111561136457611363610f09565b5b6113708d828e01611026565b97505060808b013567ffffffffffffffff81111561139157611390610f09565b5b61139d8d828e01611026565b96505060a06113ae8d828e01611286565b95505060c08b013567ffffffffffffffff8111156113cf576113ce610f09565b5b6113db8d828e01611026565b94505060e08b013567ffffffffffffffff8111156113fc576113fb610f09565b5b6114088d828e01611026565b9350506101008b013567ffffffffffffffff81111561142a57611429610f09565b5b6114368d828e01611026565b9250506101208b013567ffffffffffffffff81111561145857611457610f09565b5b6114648d828e01611026565b9150509295989b9194979a5092959850565b600082825260208201905092915050565b60006114928261109d565b61149c8185611476565b93506114ac8185602086016110b9565b6114b581610f18565b840191505092915050565b6114c98161111c565b82525050565b6114d881611155565b82525050565b60006101808301600083015184820360008601526114fc8282611487565b915050602083015184820360208601526115168282611487565b915050604083015184820360408601526115308282611487565b9150506060830151848203606086015261154a8282611487565b915050608083015184820360808601526115648282611487565b91505060a083015161157960a08601826114c0565b5060c083015184820360c08601526115918282611487565b91505060e083015184820360e08601526115ab8282611487565b9150506101008301518482036101008601526115c78282611487565b9150506101208301518482036101208601526115e38282611487565b9150506101408301516115fa6101408601826114c0565b5061016083015161160f6101608601826114cf565b508091505092915050565b6000602082019050818103600083015261163481846114de565b905092915050565b7f4e487b7100000000000000000000000000000000000000000000000000000000600052602260045260246000fd5b6000600282049050600182168061168357607f821691505b6020821081036116965761169561163c565b5b50919050565b600081905092915050565b60006116b28261109d565b6116bc818561169c565b93506116cc8185602086016110b9565b80840191505092915050565b60006116e482846116a7565b915081905092915050565b7f4944204b6f692073756461682074657264616674617221000000000000000000600082015250565b60006117256017836110a8565b9150611730826116ef565b602082019050919050565b6000602082019050818103600083015261175481611718565b9050919050565b60008190508160005260206000209050919050565b60006020601f8301049050919050565b600082821b905092915050565b6000600883026117bd7fffffffffffffffffffffffffffffffffffffffffffffffffffffffffffffffff82611780565b6117c78683611780565b95508019841693508086168417925050509392505050565b6000819050919050565b60006118046117ff6117fa8461111c565b6117df565b61111c565b9050919050565b6000819050919050565b61181e836117e9565b61183261182a8261180b565b84845461178d565b825550505050565b600090565b61184761183a565b611852818484611815565b505050565b5b818110156118765761186b60008261183f565b600181019050611858565b5050565b601f8211156118bb5761188c8161175b565b61189584611770565b810160208510156118a4578190505b6118b86118b085611770565b830182611857565b50505b505050565b600082821c905092915050565b60006118de600019846008026118c0565b1980831691505092915050565b60006118f783836118cd565b9150826002028217905092915050565b6119108261109d565b67ffffffffffffffff81111561192957611928610f29565b5b611933825461166b565b61193e82828561187a565b600060209050601f831160018114611971576000841561195f578287015190505b61196985826118eb565b8655506119d1565b601f19841661197f8661175b565b60005b828110156119a757848901518255600182019150602085019450602081019050611982565b868310156119c457848901516119c0601f8916826118cd565b8355505b6001600288020188555050505b505050505050565b600060208201905081810360008301526119f381846110e3565b90509291505056fea26469706673582212204eac1c143cd9455946a24bde79e6329796dd37483fcdb1747c26dec3be74e87d64736f6c634300081c0033",
  "linkReferences": {},
  "deployedLinkReferences": {}
}