{
  "_format": "hh-sol-artifact-1",
  "contractName": "KoiCert",
  "sourceName": "contracts/KoiCert.sol",
  "abi": [
    {
      "anonymous": false,
      "inputs": [
        {
          "indexed": true,
          "internalType": "string",
          "name": "id",
          "type": "string"
        },
        {
          "indexed": true,
          "internalType": "address",
          "name": "owner",
          "type": "address"
        }
      ],
      "name": "KoiMinted",
      "type": "event"
    },
    {
      "anonymous": false,
      "inputs": [
        {
          "indexed": true,
          "internalType": "string",
          "name": "id",
          "type": "string"
        },
        {
          "indexed": false,
          "internalType": "uint256",
          "name": "newSize",
          "type": "uint256"
        },
        {
          "indexed": false,
          "internalType": "string",
          "name": "newNote",
          "type": "string"
        },
        {
          "indexed": true,
          "internalType": "address",
          "name": "updatedBy",
          "type": "address"
        }
      ],
      "name": "KoiUpdated",
      "type": "event"
    },
    {
      "anonymous": false,
      "inputs": [
        {
          "indexed": true,
          "internalType": "string",
          "name": "id",
          "type": "string"
        },
        {
          "indexed": true,
          "internalType": "address",
          "name": "from",
          "type": "address"
        },
        {
          "indexed": true,
          "internalType": "address",
          "name": "to",
          "type": "address"
        }
      ],
      "name": "OwnershipTransferred",
      "type": "event"
    },
    {
      "inputs": [
        {
          "internalType": "string",
          "name": "_id",
          "type": "string"
        }
      ],
      "name": "getKoi",
      "outputs": [
        {
          "components": [
            {
              "internalType": "string",
              "name": "id",
              "type": "string"
            },
            {
              "internalType": "string",
              "name": "variety",
              "type": "string"
            },
            {
              "internalType": "string",
              "name": "breeder",
              "type": "string"
            },
            {
              "internalType": "string",
              "name": "gender",
              "type": "string"
            },
            {
              "internalType": "string",
              "name": "age",
              "type": "string"
            },
            {
              "internalType": "uint256",
              "name": "size",
              "type": "uint256"
            },
            {
              "internalType": "string",
              "name": "condition",
              "type": "string"
            },
            {
              "internalType": "string",
              "name": "photoUrl",
              "type": "string"
            },
            {
              "internalType": "string[]",
              "name": "certUrls",
              "type": "string[]"
            },
            {
              "internalType": "string[]",
              "name": "contestUrls",
              "type": "string[]"
            },
            {
              "internalType": "uint256",
              "name": "timestamp",
              "type": "uint256"
            },
            {
              "internalType": "address",
              "name": "issuer",
              "type": "address"
            },
            {
              "internalType": "address",
              "name": "currentOwner",
              "type": "address"
            },
            {
              "internalType": "string",
              "name": "fatherId",
              "type": "string"
            },
            {
              "internalType": "string",
              "name": "motherId",
              "type": "string"
            }
          ],
          "internalType": "struct KoiCert.KoiData",
          "name": "",
          "type": "tuple"
        }
      ],
      "stateMutability": "view",
      "type": "function"
    },
    {
      "inputs": [
        {
          "internalType": "string",
          "name": "_id",
          "type": "string"
        }
      ],
      "name": "getKoiHistory",
      "outputs": [
        {
          "components": [
            {
              "internalType": "address",
              "name": "owner",
              "type": "address"
            },
            {
              "internalType": "string",
              "name": "ownerName",
              "type": "string"
            },
            {
              "internalType": "uint256",
              "name": "timestamp",
              "type": "uint256"
            },
            {
              "internalType": "string",
              "name": "note",
              "type": "string"
            },
            {
              "internalType": "string",
              "name": "photoUrl",
              "type": "string"
            },
            {
              "internalType": "uint256",
              "name": "size",
              "type": "uint256"
            },
            {
              "internalType": "string",
              "name": "age",
              "type": "string"
            }
          ],
          "internalType": "struct KoiCert.History[]",
          "name": "",
          "type": "tuple[]"
        }
      ],
      "stateMutability": "view",
      "type": "function"
    },
    {
      "inputs": [
        {
          "internalType": "string",
          "name": "",
          "type": "string"
        },
        {
          "internalType": "uint256",
          "name": "",
          "type": "uint256"
        }
      ],
      "name": "koiHistories",
      "outputs": [
        {
          "internalType": "address",
          "name": "owner",
          "type": "address"
        },
        {
          "internalType": "string",
          "name": "ownerName",
          "type": "string"
        },
        {
          "internalType": "uint256",
          "name": "timestamp",
          "type": "uint256"
        },
        {
          "internalType": "string",
          "name": "note",
          "type": "string"
        },
        {
          "internalType": "string",
          "name": "photoUrl",
          "type": "string"
        },
        {
          "internalType": "uint256",
          "name": "size",
          "type": "uint256"
        },
        {
          "internalType": "string",
          "name": "age",
          "type": "string"
        }
      ],
      "stateMutability": "view",
      "type": "function"
    },
    {
      "inputs": [
        {
          "internalType": "string",
          "name": "",
          "type": "string"
        }
      ],
      "name": "koiRegistry",
      "outputs": [
        {
          "internalType": "string",
          "name": "id",
          "type": "string"
        },
        {
          "internalType": "string",
          "name": "variety",
          "type": "string"
        },
        {
          "internalType": "string",
          "name": "breeder",
          "type": "string"
        },
        {
          "internalType": "string",
          "name": "gender",
          "type": "string"
        },
        {
          "internalType": "string",
          "name": "age",
          "type": "string"
        },
        {
          "internalType": "uint256",
          "name": "size",
          "type": "uint256"
        },
        {
          "internalType": "string",
          "name": "condition",
          "type": "string"
        },
        {
          "internalType": "string",
          "name": "photoUrl",
          "type": "string"
        },
        {
          "internalType": "uint256",
          "name": "timestamp",
          "type": "uint256"
        },
        {
          "internalType": "address",
          "name": "issuer",
          "type": "address"
        },
        {
          "internalType": "address",
          "name": "currentOwner",
          "type": "address"
        },
        {
          "internalType": "string",
          "name": "fatherId",
          "type": "string"
        },
        {
          "internalType": "string",
          "name": "motherId",
          "type": "string"
        }
      ],
      "stateMutability": "view",
      "type": "function"
    },
    {
      "inputs": [
        {
          "internalType": "string",
          "name": "_id",
          "type": "string"
        },
        {
          "internalType": "string",
          "name": "_variety",
          "type": "string"
        },
        {
          "internalType": "string",
          "name": "_breeder",
          "type": "string"
        },
        {
          "internalType": "string",
          "name": "_gender",
          "type": "string"
        },
        {
          "internalType": "string",
          "name": "_age",
          "type": "string"
        },
        {
          "internalType": "uint256",
          "name": "_size",
          "type": "uint256"
        },
        {
          "internalType": "string",
          "name": "_condition",
          "type": "string"
        },
        {
          "internalType": "string",
          "name": "_photoUrl",
          "type": "string"
        },
        {
          "internalType": "string",
          "name": "_certUrl",
          "type": "string"
        },
        {
          "internalType": "string",
          "name": "_contestUrl",
          "type": "string"
        },
        {
          "internalType": "string",
          "name": "_fatherId",
          "type": "string"
        },
        {
          "internalType": "string",
          "name": "_motherId",
          "type": "string"
        }
      ],
      "name": "mintCertificate",
      "outputs": [],
      "stateMutability": "nonpayable",
      "type": "function"
    },
    {
      "inputs": [
        {
          "internalType": "string",
          "name": "_id",
          "type": "string"
        },
        {
          "internalType": "address",
          "name": "_newOwner",
          "type": "address"
        },
        {
          "internalType": "string",
          "name": "_newOwnerName",
          "type": "string"
        },
        {
          "internalType": "uint256",
          "name": "_newSize",
          "type": "uint256"
        },
        {
          "internalType": "string",
          "name": "_newAge",
          "type": "string"
        },
        {
          "internalType": "string",
          "name": "_newCondition",
          "type": "string"
        },
        {
          "internalType": "string",
          "name": "_newPhotoUrl",
          "type": "string"
        },
        {
          "internalType": "string",
          "name": "_note",
          "type": "string"
        }
      ],
      "name": "transferOwnership",
      "outputs": [],
      "stateMutability": "nonpayable",
      "type": "function"
    },
    {
      "inputs": [
        {
          "internalType": "string",
          "name": "_id",
          "type": "string"
        },
        {
          "internalType": "uint256",
          "name": "_newSize",
          "type": "uint256"
        },
        {
          "internalType": "string",
          "name": "_newAge",
          "type": "string"
        },
        {
          "internalType": "string",
          "name": "_newCondition",
          "type": "string"
        },
        {
          "internalType": "string",
          "name": "_newPhotoUrl",
          "type": "string"
        },
        {
          "internalType": "string",
          "name": "_newContestUrl",
          "type": "string"
        },
        {
          "internalType": "string",
          "name": "_updateNote",
          "type": "string"
        }
      ],
      "name": "updateKoiStats",
      "outputs": [],
      "stateMutability": "nonpayable",
      "type": "function"
    }
  ],
  "bytecode": "0x60808060405234610016576115f0908161001c8239f35b600080fdfe60a0604052600436101561001257600080fd5b60003560e01c806321de3d8114610cd957806337fd116414610af05780633daa0a5d1461094d578063657a310f1461062f57806365bd6b4814610395578063856589de146102855763ef9423e41461006957600080fd5b346102805760e0366003190112610280576001600160401b036004358181116102805761009a9036906004016110fd565b602435604435838111610280576100b59036906004016110fd565b90606435848111610280576100ce9036906004016110fd565b91608435858111610280576100e79036906004016110fd565b9460a435818111610280576101009036906004016110fd565b9460c435918211610280576102377f79c6ba49cf865bf63ae70934c6736ba6bef62ae80dab6766babbc4428678ec42956040946101e26101879961014b61023c9736906004016110fd565b9b88519187519160209d8e94600c868c0195610168818489611153565b82019160008352878160018060a01b0394030190200154163314611511565b6101c28b5185818c5161019b81838a611153565b81016000815203019020978d60058a01556101b98860048b01611309565b60068901611309565b805161026d575b50805161025a575b508851809381928951928391611153565b810160018152030190209061022260078851946101fe866110a5565b33865261020d600282016111d5565b8d870152428a8701528d6060870152016111d5565b60808401528760a084015260c0830152611447565b6114f1565b9381519283528201528061025533956040830190611176565b0390a3005b6102679060098701611418565b386101d1565b61027a9060078801611309565b386101c9565b600080fd5b34610280576040366003190112610280576004356001600160401b038111610280576102b59036906004016110fd565b6102d16020602435928160405193828580945193849201611153565b81016001815203019020908154811015610280576102ee916112d7565b5080546001600160a01b0316610391610309600184016111d5565b92600281015461037e61031e600384016111d5565b9161037061032e600486016111d5565b916103406006600588015497016111d5565b9461035d6040519a8b9a8b5260e060208c015260e08b0190611176565b9160408a015288820360608a0152611176565b908682036080880152611176565b9160a085015283820360c0850152611176565b0390f35b3461028057610100366003190112610280576001600160401b03600435818111610280576103c79036906004016110fd565b6001600160a01b03602435818116939084900361028057604435818111610280576103f69036906004016110fd565b60643590608435838111610280576104129036906004016110fd565b9260a4358181116102805761042b9036906004016110fd565b9360c435828111610280576104449036906004016110fd565b60e4359283116102805761045d889336906004016110fd565b956040519261049889600c8751966020608099818b52019761048081838b611153565b810160008152818a5191030190200154163314611511565b8a156105f55795610584958b979561058b9a999561057a956004958b998f60405190516104c6818388611153565b810160008152818751910301902096600c880180549e8f6001600160601b0360a01b161790556104f98760028a01611309565b806105ea575b5080516105d8575b5080516105c5575b5080516105b2575b508c61052b60405192839251928391611153565b8101600181528183519103019020956005840154926040519861054d8a6110a5565b89528251890152426040890152606088015261056b600784016111d5565b9087015260a0860152016111d5565b60c0830152611447565b16916114f1565b7f6840904f5b31827f74e1497360da245f56e530c8c3de3163a2d31f11493273c6600080a4005b6105bf9060078601611309565b8e610517565b6105d29060068701611309565b8f61050f565b6105e490888801611309565b38610507565b6005880155386104ff565b60405162461bcd60e51b8152855160048201526012602482015271105b185b585d081d1a59185ac81d985b1a5960721b6044820152606490fd5b34610280576020366003190112610280576004356001600160401b038111610280576106e660206106676103919336906004016110fd565b60606101c0604051610678816110c0565b82815282858201528260408201528280820152826080820152600060a08201528260c08201528260e08201528261010082015282610120820152600061014082015260006101608201526000610180820152826101a082015201528160405193828580945193849201611153565b810160008152030190206107e6600e60405192610702846110c0565b61070b816111d5565b8452610719600182016111d5565b602085015261072a600282016111d5565b604085015261073b600382016111d5565b606085015261074c600482016111d5565b6080850152600581015460a0850152610767600682016111d5565b60c0850152610778600782016111d5565b60e085015261078960088201611565565b61010085015261079b60098201611565565b610120850152600a810154610140850152600b8101546001600160a01b03908116610160860152600c820154166101808501526107da600d82016111d5565b6101a0850152016111d5565b6101c0820152604051918291602083526101c06109386108ee6108d66108be6108a761088761087161085b61084561082d8d6102008d51916101e060208201520190611176565b8d60208d0151906040601f1982850301910152611176565b60408b01518d8203601f190160608f0152611176565b60608a01518c8203601f190160808e0152611176565b60808901518b8203601f190160a08d0152611176565b60a088015160c08b015260c0880151601f198b83030160e08c0152611176565b60e0870151898203601f19016101008b0152611176565b610100860151888203601f19016101208a015261127b565b610120850151878203601f190161014089015261127b565b61014084015161016087015260018060a01b036101608501511661018087015260018060a01b03610180850151166101a08701526101a0840151601f198783030184880152611176565b910151838203601f19016101e0850152611176565b34610280576020366003190112610280576004356001600160401b0381116102805761097d9036906004016110fd565b604051818180935160208193019161099492611153565b8101600081520360200190206109a9816111d5565b6109b5600183016111d5565b916109c2600282016111d5565b906109cf600382016111d5565b6109db600483016111d5565b600583015491906109ee600685016111d5565b6109fa600786016111d5565b90600a86015494600160a01b600190039384600b8901541694600c8901541695600d8901610a27906111d5565b98600e01610a34906111d5565b996040519c8d9c8d6101a09081815201610a4d91611176565b8d810360208f0152610a5e91611176565b8c810360408e0152610a6f91611176565b8b810360608d0152610a8091611176565b8a810360808c0152610a9191611176565b9060a08a015288810360c08a0152610aa891611176565b87810360e0890152610ab991611176565b92610100870152610120860152610140850152838103610160850152610ade91611176565b82810361018084015261039191611176565b3461028057602080600319360112610280576004356001600160401b03811161028057610b219036906004016110fd565b9080610b366040519384815193849201611153565b82019181816001948581520301902091825491610b528361154e565b92610b6060405194856110dc565b8084528184018095600052826000206000915b838310610c4c5750505050604051928184019082855251809152604084019160408260051b86010195926000905b838210610bae5786880387f35b90919293948380610c3b839a603f198b8203018652895160018060a01b038151168252610c1e610c0b610bee8684015160e08887015260e0860190611176565b604084015160408601526060808501519086830390870152611176565b6080808401519085830390860152611176565b9160a0808301519082015260c08092015191818403910152611176565b999701959493919091019101610ba1565b94600785829997604099979951610c62816110a5565b85546001600160a01b03168152610c7a8587016111d5565b8382015260028601546040820152610c94600387016111d5565b6060820152610ca5600487016111d5565b6080820152600586015460a0820152610cc0600687016111d5565b60c0820152815201920192019190969496959395610b73565b3461028057610180366003190112610280576004356001600160401b03811161028057610d0a9036906004016110fd565b6024356001600160401b03811161028057610d299036906004016110fd565b6044356001600160401b03811161028057610d489036906004016110fd565b6064356001600160401b03811161028057610d679036906004016110fd565b6084356001600160401b03811161028057610d869036906004016110fd565b60c4356001600160401b03811161028057610da59036906004016110fd565b9160e4356001600160401b03811161028057610dc59036906004016110fd565b94610104356001600160401b03811161028057610de69036906004016110fd565b610124356001600160401b03811161028057610e069036906004016110fd565b91610144356001600160401b03811161028057610e279036906004016110fd565b93610164356001600160401b03811161028057610e489036906004016110fd565b90610e75610e6560208d8160405193828580945193849201611153565b810160008152030190205461119b565b611060578a95610ed5610f3992610ebf610f4296610eb6610ea560208d8160405193828580945193849201611153565b810160008152030190209b8c611309565b60018b01611309565b610ecc8c60028b01611309565b60038901611309565b610ee28860048901611309565b610ef860a435998a60058a015560068901611309565b610f058b60078901611309565b42600a880155600b87016001600160601b0360a01b903382825416179055600c8801903390825416179055600d8701611309565b600e8501611309565b805161104d575b50805161103a575b50506040516020818751610f688183858c01611153565b810160018152030190209160405193610f80856110a5565b33855260208501524260408501526040519460408601958087106001600160401b0388111761102457610ff396604052601f81527f47656e657369733a20536572746966696b61742044697465726269746b616e0060208201526060860152608085015260a084015260c0830152611447565b610ffd33916114f1565b7fa4c0a4309ffacefc99dd96b819696b5178f5252acabbf700ec8bee266ac01cd7600080a3005b634e487b7160e01b600052604160045260246000fd5b60096110469201611418565b8580610f51565b61105a9060088401611418565b87610f49565b60405162461bcd60e51b815260206004820152601760248201527f4944204b6f6920737564616820746572646166746172210000000000000000006044820152606490fd5b60e081019081106001600160401b0382111761102457604052565b6101e081019081106001600160401b0382111761102457604052565b90601f801991011681019081106001600160401b0382111761102457604052565b81601f82011215610280578035906001600160401b0382116110245760405192611131601f8401601f1916602001856110dc565b8284526020838301011161028057816000926020809301838601378301015290565b60005b8381106111665750506000910152565b8181015183820152602001611156565b9060209161118f81518092818552858086019101611153565b601f01601f1916010190565b90600182811c921680156111cb575b60208310146111b557565b634e487b7160e01b600052602260045260246000fd5b91607f16916111aa565b90604051918260008254926111e98461119b565b9081845260019485811690816000146112585750600114611215575b5050611213925003836110dc565b565b9093915060005260209081600020936000915b81831061124057505061121393508201013880611205565b85548884018501529485019487945091830191611228565b91505061121394506020925060ff191682840152151560051b8201013880611205565b908082519081815260208091019281808460051b8301019501936000915b8483106112a95750505050505090565b90919293949584806112c7600193601f198682030187528a51611176565b9801930193019194939290611299565b80548210156112f3576000526007602060002091020190600090565b634e487b7160e01b600052603260045260246000fd5b91909182516001600160401b03811161102457611326825461119b565b601f81116113d0575b50602080601f831160011461136c575081929394600092611361575b50508160011b916000199060031b1c1916179055565b01519050388061134b565b90601f198316958460005282600020926000905b8882106113b85750508360019596971061139f575b505050811b019055565b015160001960f88460031b161c19169055388080611395565b80600185968294968601518155019501930190611380565b600083815260208120601f840160051c8101926020851061140e575b601f0160051c01915b82811061140357505061132f565b8181556001016113f5565b90925082906113ec565b908154600160401b81101561102457600181018084558110156112f35761121392600052602060002001611309565b8054600160401b81101561102457611464916001820181556112d7565b6114db57600660c06112139360018060a01b038151166001600160601b0360a01b85541617845561149c602082015160018601611309565b604081015160028501556114b7606082015160038601611309565b6114c8608082015160048601611309565b60a0810151600585015501519101611309565b634e487b7160e01b600052600060045260246000fd5b61150990602060405192828480945193849201611153565b810103902090565b1561151857565b60405162461bcd60e51b815260206004820152600e60248201526d416b736573204469746f6c616b2160901b6044820152606490fd5b6001600160401b0381116110245760051b60200190565b9081546115718161154e565b9261157f60405194856110dc565b818452600090815260208082208186015b84841061159e575050505050565b60018381926115ac856111d5565b81520192019301929061159056fea2646970667358221220e21aa910ae1ce5b0912840328b5967f026745566399ad13bc848f4606e9a088c64736f6c63430008130033",
  "linkReferences": {},
  "deployedLinkReferences": {}
}