{"contracts/KoiCert.sol":{"KoiCert":{"abi":[{"anonymous":false,"inputs":[{"indexed":true,"internalType":"string","name":"id","type":"string"},{"indexed":true,"internalType":"address","name":"owner","type":"address"}],"name":"KoiMinted","type":"event"},{"anonymous":false,"inputs":[{"indexed":true,"internalType":"string","name":"id","type":"string"},{"indexed":false,"internalType":"uint256","name":"newSize","type":"uint256"},{"indexed":false,"internalType":"string","name":"newNote","type":"string"},{"indexed":true,"internalType":"address","name":"updatedBy","type":"address"}],"name":"KoiUpdated","type":"event"},{"anonymous":false,"inputs":[{"indexed":true,"internalType":"string","name":"id","type":"string"},{"indexed":true,"internalType":"address","name":"from","type":"address"},{"indexed":true,"internalType":"address","name":"to","type":"address"}],"name":"OwnershipTransferred","type":"event"},{"inputs":[{"internalType":"string","name":"_id","type":"string"}],"name":"getKoi","outputs":[{"components":[{"internalType":"string","name":"id","type":"string"},{"internalType":"string","name":"variety","type":"string"},{"internalType":"string","name":"breeder","type":"string"},{"internalType":"string","name":"gender","type":"string"},{"internalType":"string","name":"age","type":"string"},{"internalType":"uint256","name":"size","type":"uint256"},{"internalType":"string","name":"condition","type":"string"},{"internalType":"string","name":"photoUrl","type":"string"},{"internalType":"string[]","name":"certUrls","type":"string[]"},{"internalType":"string[]","name":"contestUrls","type":"string[]"},{"internalType":"uint256","name":"timestamp","type":"uint256"},{"internalType":"address","name":"issuer","type":"address"},{"internalType":"address","name":"currentOwner","type":"address"},{"internalType":"string","name":"fatherId","type":"string"},{"internalType":"string","name":"motherId","type":"string"}],"internalType":"struct KoiCert.KoiData","name":"","type":"tuple"}],"stateMutability":"view","type":"function"},{"inputs":[{"internalType":"string","name":"_id","type":"string"}],"name":"getKoiHistory","outputs":[{"components":[{"internalType":"address","name":"owner","type":"address"},{"internalType":"string","name":"ownerName","type":"string"},{"internalType":"uint256","name":"timestamp","type":"uint256"},{"internalType":"string","name":"note","type":"string"},{"internalType":"string","name":"photoUrl","type":"string"},{"internalType":"uint256","name":"size","type":"uint256"},{"internalType":"string","name":"age","type":"string"}],"internalType":"struct KoiCert.History[]","name":"","type":"tuple[]"}],"stateMutability":"view","type":"function"},{"inputs":[{"internalType":"string","name":"","type":"string"},{"internalType":"uint256","name":"","type":"uint256"}],"name":"koiHistories","outputs":[{"internalType":"address","name":"owner","type":"address"},{"internalType":"string","name":"ownerName","type":"string"},{"internalType":"uint256","name":"timestamp","type":"uint256"},{"internalType":"string","name":"note","type":"string"},{"internalType":"string","name":"photoUrl","type":"string"},{"internalType":"uint256","name":"size","type":"uint256"},{"internalType":"string","name":"age","type":"string"}],"stateMutability":"view","type":"function"},{"inputs":[{"internalType":"string","name":"","type":"string"}],"name":"koiRegistry","outputs":[{"internalType":"string","name":"id","type":"string"},{"internalType":"string","name":"variety","type":"string"},{"internalType":"string","name":"breeder","type":"string"},{"internalType":"string","name":"gender","type":"string"},{"internalType":"string","name":"age","type":"string"},{"internalType":"uint256","name":"size","type":"uint256"},{"internalType":"string","name":"condition","type":"string"},{"internalType":"string","name":"photoUrl","type":"string"},{"internalType":"uint256","name":"timestamp","type":"uint256"},{"internalType":"address","name":"issuer","type":"address"},{"internalType":"address","name":"currentOwner","type":"address"},{"internalType":"string","name":"fatherId","type":"string"},{"internalType":"string","name":"motherId","type":"string"}],"stateMutability":"view","type":"function"},{"inputs":[{"internalType":"string","name":"_id","type":"string"},{"internalType":"string","name":"_variety","type":"string"},{"internalType":"string","name":"_breeder","type":"string"},{"internalType":"string","name":"_gender","type":"string"},{"internalType":"string","name":"_age","type":"string"},{"internalType":"uint256","name":"_size","type":"uint256"},{"internalType":"string","name":"_condition","type":"string"},{"internalType":"string","name":"_photoUrl","type":"string"},{"internalType":"string","name":"_certUrl","type":"string"},{"internalType":"string","name":"_contestUrl","type":"string"},{"internalType":"string","name":"_fatherId","type":"string"},{"internalType":"string","name":"_motherId","type":"string"}],"name":"mintCertificate","outputs":[],"stateMutability":"nonpayable","type":"function"},{"inputs":[{"internalType":"string","name":"_id","type":"string"},{"internalType":"address","name":"_newOwner","type":"address"},{"internalType":"string","name":"_newOwnerName","type":"string"},{"internalType":"uint256","name":"_newSize","type":"uint256"},{"internalType":"string","name":"_newAge","type":"string"},{"internalType":"string","name":"_newCondition","type":"string"},{"internalType":"string","name":"_newPhotoUrl","type":"string"},{"internalType":"string","name":"_note","type":"string"}],"name":"transferOwnership","outputs":[],"stateMutability":"nonpayable","type":"function"},{"inputs":[{"internalType":"string","name":"_id","type":"string"},{"internalType":"uint256","name":"_newSize","type":"uint256"},{"internalType":"string","name":"_newAge","type":"string"},{"internalType":"string","name":"_newCondition","type":"string"},{"internalType":"string","name":"_newPhotoUrl","type":"string"},{"internalType":"string","name":"_newContestUrl","type":"string"},{"internalType":"string","name":"_updateNote","type":"string"}],"name":"updateKoiStats","outputs":[],"stateMutability":"nonpayable","type":"function"}],"evm":{"bytecode":{"linkReferences":{},"object":"60808060405234610016576115f0908161001c8239f35b600080fdfe60a0604052600436101561001257600080fd5b60003560e01c806321de3d8114610cd957806337fd116414610af05780633daa0a5d1461094d578063657a310f1461062f57806365bd6b4814610395578063856589de146102855763ef9423e41461006957600080fd5b346102805760e0366003190112610280576001600160401b036004358181116102805761009a9036906004016110fd565b602435604435838111610280576100b59036906004016110fd565b90606435848111610280576100ce9036906004016110fd565b91608435858111610280576100e79036906004016110fd565b9460a435818111610280576101009036906004016110fd565b9460c435918211610280576102377f79c6ba49cf865bf63ae70934c6736ba6bef62ae80dab6766babbc4428678ec42956040946101e26101879961014b61023c9736906004016110fd565b9b88519187519160209d8e94600c868c0195610168818489611153565b82019160008352878160018060a01b0394030190200154163314611511565b6101c28b5185818c5161019b81838a611153565b81016000815203019020978d60058a01556101b98860048b01611309565b60068901611309565b805161026d575b50805161025a575b508851809381928951928391611153565b810160018152030190209061022260078851946101fe866110a5565b33865261020d600282016111d5565b8d870152428a8701528d6060870152016111d5565b60808401528760a084015260c0830152611447565b6114f1565b9381519283528201528061025533956040830190611176565b0390a3005b6102679060098701611418565b386101d1565b61027a9060078801611309565b386101c9565b600080fd5b34610280576040366003190112610280576004356001600160401b038111610280576102b59036906004016110fd565b6102d16020602435928160405193828580945193849201611153565b81016001815203019020908154811015610280576102ee916112d7565b5080546001600160a01b0316610391610309600184016111d5565b92600281015461037e61031e600384016111d5565b9161037061032e600486016111d5565b916103406006600588015497016111d5565b9461035d6040519a8b9a8b5260e060208c015260e08b0190611176565b9160408a015288820360608a0152611176565b908682036080880152611176565b9160a085015283820360c0850152611176565b0390f35b3461028057610100366003190112610280576001600160401b03600435818111610280576103c79036906004016110fd565b6001600160a01b03602435818116939084900361028057604435818111610280576103f69036906004016110fd565b60643590608435838111610280576104129036906004016110fd565b9260a4358181116102805761042b9036906004016110fd565b9360c435828111610280576104449036906004016110fd565b60e4359283116102805761045d889336906004016110fd565b956040519261049889600c8751966020608099818b52019761048081838b611153565b810160008152818a5191030190200154163314611511565b8a156105f55795610584958b979561058b9a999561057a956004958b998f60405190516104c6818388611153565b810160008152818751910301902096600c880180549e8f6001600160601b0360a01b161790556104f98760028a01611309565b806105ea575b5080516105d8575b5080516105c5575b5080516105b2575b508c61052b60405192839251928391611153565b8101600181528183519103019020956005840154926040519861054d8a6110a5565b89528251890152426040890152606088015261056b600784016111d5565b9087015260a0860152016111d5565b60c0830152611447565b16916114f1565b7f6840904f5b31827f74e1497360da245f56e530c8c3de3163a2d31f11493273c6600080a4005b6105bf9060078601611309565b8e610517565b6105d29060068701611309565b8f61050f565b6105e490888801611309565b38610507565b6005880155386104ff565b60405162461bcd60e51b8152855160048201526012602482015271105b185b585d081d1a59185ac81d985b1a5960721b6044820152606490fd5b34610280576020366003190112610280576004356001600160401b038111610280576106e660206106676103919336906004016110fd565b60606101c0604051610678816110c0565b82815282858201528260408201528280820152826080820152600060a08201528260c08201528260e08201528261010082015282610120820152600061014082015260006101608201526000610180820152826101a082015201528160405193828580945193849201611153565b810160008152030190206107e6600e60405192610702846110c0565b61070b816111d5565b8452610719600182016111d5565b602085015261072a600282016111d5565b604085015261073b600382016111d5565b606085015261074c600482016111d5565b6080850152600581015460a0850152610767600682016111d5565b60c0850152610778600782016111d5565b60e085015261078960088201611565565b61010085015261079b60098201611565565b610120850152600a810154610140850152600b8101546001600160a01b03908116610160860152600c820154166101808501526107da600d82016111d5565b6101a0850152016111d5565b6101c0820152604051918291602083526101c06109386108ee6108d66108be6108a761088761087161085b61084561082d8d6102008d51916101e060208201520190611176565b8d60208d0151906040601f1982850301910152611176565b60408b01518d8203601f190160608f0152611176565b60608a01518c8203601f190160808e0152611176565b60808901518b8203601f190160a08d0152611176565b60a088015160c08b015260c0880151601f198b83030160e08c0152611176565b60e0870151898203601f19016101008b0152611176565b610100860151888203601f19016101208a015261127b565b610120850151878203601f190161014089015261127b565b61014084015161016087015260018060a01b036101608501511661018087015260018060a01b03610180850151166101a08701526101a0840151601f198783030184880152611176565b910151838203601f19016101e0850152611176565b34610280576020366003190112610280576004356001600160401b0381116102805761097d9036906004016110fd565b604051818180935160208193019161099492611153565b8101600081520360200190206109a9816111d5565b6109b5600183016111d5565b916109c2600282016111d5565b906109cf600382016111d5565b6109db600483016111d5565b600583015491906109ee600685016111d5565b6109fa600786016111d5565b90600a86015494600160a01b600190039384600b8901541694600c8901541695600d8901610a27906111d5565b98600e01610a34906111d5565b996040519c8d9c8d6101a09081815201610a4d91611176565b8d810360208f0152610a5e91611176565b8c810360408e0152610a6f91611176565b8b810360608d0152610a8091611176565b8a810360808c0152610a9191611176565b9060a08a015288810360c08a0152610aa891611176565b87810360e0890152610ab991611176565b92610100870152610120860152610140850152838103610160850152610ade91611176565b82810361018084015261039191611176565b3461028057602080600319360112610280576004356001600160401b03811161028057610b219036906004016110fd565b9080610b366040519384815193849201611153565b82019181816001948581520301902091825491610b528361154e565b92610b6060405194856110dc565b8084528184018095600052826000206000915b838310610c4c5750505050604051928184019082855251809152604084019160408260051b86010195926000905b838210610bae5786880387f35b90919293948380610c3b839a603f198b8203018652895160018060a01b038151168252610c1e610c0b610bee8684015160e08887015260e0860190611176565b604084015160408601526060808501519086830390870152611176565b6080808401519085830390860152611176565b9160a0808301519082015260c08092015191818403910152611176565b999701959493919091019101610ba1565b94600785829997604099979951610c62816110a5565b85546001600160a01b03168152610c7a8587016111d5565b8382015260028601546040820152610c94600387016111d5565b6060820152610ca5600487016111d5565b6080820152600586015460a0820152610cc0600687016111d5565b60c0820152815201920192019190969496959395610b73565b3461028057610180366003190112610280576004356001600160401b03811161028057610d0a9036906004016110fd565b6024356001600160401b03811161028057610d299036906004016110fd565b6044356001600160401b03811161028057610d489036906004016110fd565b6064356001600160401b03811161028057610d679036906004016110fd565b6084356001600160401b03811161028057610d869036906004016110fd565b60c4356001600160401b03811161028057610da59036906004016110fd565b9160e4356001600160401b03811161028057610dc59036906004016110fd565b94610104356001600160401b03811161028057610de69036906004016110fd565b610124356001600160401b03811161028057610e069036906004016110fd565b91610144356001600160401b03811161028057610e279036906004016110fd565b93610164356001600160401b03811161028057610e489036906004016110fd565b90610e75610e6560208d8160405193828580945193849201611153565b810160008152030190205461119b565b611060578a95610ed5610f3992610ebf610f4296610eb6610ea560208d8160405193828580945193849201611153565b810160008152030190209b8c611309565b60018b01611309565b610ecc8c60028b01611309565b60038901611309565b610ee28860048901611309565b610ef860a435998a60058a015560068901611309565b610f058b60078901611309565b42600a880155600b87016001600160601b0360a01b903382825416179055600c8801903390825416179055600d8701611309565b600e8501611309565b805161104d575b50805161103a575b50506040516020818751610f688183858c01611153565b810160018152030190209160405193610f80856110a5565b33855260208501524260408501526040519460408601958087106001600160401b0388111761102457610ff396604052601f81527f47656e657369733a20536572746966696b61742044697465726269746b616e0060208201526060860152608085015260a084015260c0830152611447565b610ffd33916114f1565b7fa4c0a4309ffacefc99dd96b819696b5178f5252acabbf700ec8bee266ac01cd7600080a3005b634e487b7160e01b600052604160045260246000fd5b60096110469201611418565b8580610f51565b61105a9060088401611418565b87610f49565b60405162461bcd60e51b815260206004820152601760248201527f4944204b6f6920737564616820746572646166746172210000000000000000006044820152606490fd5b60e081019081106001600160401b0382111761102457604052565b6101e081019081106001600160401b0382111761102457604052565b90601f801991011681019081106001600160401b0382111761102457604052565b81601f82011215610280578035906001600160401b0382116110245760405192611131601f8401601f1916602001856110dc565b8284526020838301011161028057816000926020809301838601378301015290565b60005b8381106111665750506000910152565b8181015183820152602001611156565b9060209161118f81518092818552858086019101611153565b601f01601f1916010190565b90600182811c921680156111cb575b60208310146111b557565b634e487b7160e01b600052602260045260246000fd5b91607f16916111aa565b90604051918260008254926111e98461119b565b9081845260019485811690816000146112585750600114611215575b5050611213925003836110dc565b565b9093915060005260209081600020936000915b81831061124057505061121393508201013880611205565b85548884018501529485019487945091830191611228565b91505061121394506020925060ff191682840152151560051b8201013880611205565b908082519081815260208091019281808460051b8301019501936000915b8483106112a95750505050505090565b90919293949584806112c7600193601f198682030187528a51611176565b9801930193019194939290611299565b80548210156112f3576000526007602060002091020190600090565b634e487b7160e01b600052603260045260246000fd5b91909182516001600160401b03811161102457611326825461119b565b601f81116113d0575b50602080601f831160011461136c575081929394600092611361575b50508160011b916000199060031b1c1916179055565b01519050388061134b565b90601f198316958460005282600020926000905b8882106113b85750508360019596971061139f575b505050811b019055565b015160001960f88460031b161c19169055388080611395565b80600185968294968601518155019501930190611380565b600083815260208120601f840160051c8101926020851061140e575b601f0160051c01915b82811061140357505061132f565b8181556001016113f5565b90925082906113ec565b908154600160401b81101561102457600181018084558110156112f35761121392600052602060002001611309565b8054600160401b81101561102457611464916001820181556112d7565b6114db57600660c06112139360018060a01b038151166001600160601b0360a01b85541617845561149c602082015160018601611309565b604081015160028501556114b7606082015160038601611309565b6114c8608082015160048601611309565b60a0810151600585015501519101611309565b634e487b7160e01b600052600060045260246000fd5b61150990602060405192828480945193849201611153565b810103902090565b1561151857565b60405162461bcd60e51b815260206004820152600e60248201526d416b736573204469746f6c616b2160901b6044820152606490fd5b6001600160401b0381116110245760051b60200190565b9081546115718161154e565b9261157f60405194856110dc565b818452600090815260208082208186015b84841061159e575050505050565b60018381926115ac856111d5565b81520192019301929061159056fea2646970667358221220e21aa910ae1ce5b0912840328b5967f026745566399ad13bc848f4606e9a088c64736f6c63430008130033","opcodes":"PUSH1 0x80 DUP1 PUSH1 0x40 MSTORE CALLVALUE PUSH2 0x16 JUMPI PUSH2 0x15F0 SWAP1 DUP2 PUSH2 0x1C DUP3 CODECOPY RETURN JUMPDEST PUSH1 0x0 DUP1 REVERT INVALID PUSH1 0xA0 PUSH1 0x40 MSTORE PUSH1 0x4 CALLDATASIZE LT ISZERO PUSH2 0x12 JUMPI PUSH1 0x0 DUP1 REVERT JUMPDEST PUSH1 0x0 CALLDATALOAD PUSH1 0xE0 SHR DUP1 PUSH4 0x21DE3D81 EQ PUSH2 0xCD9 JUMPI DUP1 PUSH4 0x37FD1164 EQ PUSH2 0xAF0 JUMPI DUP1 PUSH4 0x3DAA0A5D EQ PUSH2 0x94D JUMPI DUP1 PUSH4 0x657A310F EQ PUSH2 0x62F JUMPI DUP1 PUSH4 0x65BD6B48 EQ PUSH2 0x395 JUMPI DUP1 PUSH4 0x856589DE EQ PUSH2 0x285 JUMPI PUSH4 0xEF9423E4 EQ PUSH2 0x69 JUMPI PUSH1 0x0 DUP1 REVERT JUMPDEST CALLVALUE PUSH2 0x280 JUMPI PUSH1 0xE0 CALLDATASIZE PUSH1 0x3 NOT ADD SLT PUSH2 0x280 JUMPI PUSH1 0x1 PUSH1 0x1 PUSH1 0x40 SHL SUB PUSH1 0x4 CALLDATALOAD DUP2 DUP2 GT PUSH2 0x280 JUMPI PUSH2 0x9A SWAP1 CALLDATASIZE SWAP1 PUSH1 0x4 ADD PUSH2 0x10FD JUMP JUMPDEST PUSH1 0x24 CALLDATALOAD PUSH1 0x44 CALLDATALOAD DUP4 DUP2 GT PUSH2 0x280 JUMPI PUSH2 0xB5 SWAP1 CALLDATASIZE SWAP1 PUSH1 0x4 ADD PUSH2 0x10FD JUMP JUMPDEST SWAP1 PUSH1 0x64 CALLDATALOAD DUP5 DUP2 GT PUSH2 0x280 JUMPI PUSH2 0xCE SWAP1 CALLDATASIZE SWAP1 PUSH1 0x4 ADD PUSH2 0x10FD JUMP JUMPDEST SWAP2 PUSH1 0x84 CALLDATALOAD DUP6 DUP2 GT PUSH2 0x280 JUMPI PUSH2 0xE7 SWAP1 CALLDATASIZE SWAP1 PUSH1 0x4 ADD PUSH2 0x10FD JUMP JUMPDEST SWAP5 PUSH1 0xA4 CALLDATALOAD DUP2 DUP2 GT PUSH2 0x280 JUMPI PUSH2 0x100 SWAP1 CALLDATASIZE SWAP1 PUSH1 0x4 ADD PUSH2 0x10FD JUMP JUMPDEST SWAP5 PUSH1 0xC4 CALLDATALOAD SWAP2 DUP3 GT PUSH2 0x280 JUMPI PUSH2 0x237 PUSH32 0x79C6BA49CF865BF63AE70934C6736BA6BEF62AE80DAB6766BABBC4428678EC42 SWAP6 PUSH1 0x40 SWAP5 PUSH2 0x1E2 PUSH2 0x187 SWAP10 PUSH2 0x14B PUSH2 0x23C SWAP8 CALLDATASIZE SWAP1 PUSH1 0x4 ADD PUSH2 0x10FD JUMP JUMPDEST SWAP12 DUP9 MLOAD SWAP2 DUP8 MLOAD SWAP2 PUSH1 0x20 SWAP14 DUP15 SWAP5 PUSH1 0xC DUP7 DUP13 ADD SWAP6 PUSH2 0x168 DUP2 DUP5 DUP10 PUSH2 0x1153 JUMP JUMPDEST DUP3 ADD SWAP2 PUSH1 0x0 DUP4 MSTORE DUP8 DUP2 PUSH1 0x1 DUP1 PUSH1 0xA0 SHL SUB SWAP5 SUB ADD SWAP1 KECCAK256 ADD SLOAD AND CALLER EQ PUSH2 0x1511 JUMP JUMPDEST PUSH2 0x1C2 DUP12 MLOAD DUP6 DUP2 DUP13 MLOAD PUSH2 0x19B DUP2 DUP4 DUP11 PUSH2 0x1153 JUMP JUMPDEST DUP2 ADD PUSH1 0x0 DUP2 MSTORE SUB ADD SWAP1 KECCAK256 SWAP8 DUP14 PUSH1 0x5 DUP11 ADD SSTORE PUSH2 0x1B9 DUP9 PUSH1 0x4 DUP12 ADD PUSH2 0x1309 JUMP JUMPDEST PUSH1 0x6 DUP10 ADD PUSH2 0x1309 JUMP JUMPDEST DUP1 MLOAD PUSH2 0x26D JUMPI JUMPDEST POP DUP1 MLOAD PUSH2 0x25A JUMPI JUMPDEST POP DUP9 MLOAD DUP1 SWAP4 DUP2 SWAP3 DUP10 MLOAD SWAP3 DUP4 SWAP2 PUSH2 0x1153 JUMP JUMPDEST DUP2 ADD PUSH1 0x1 DUP2 MSTORE SUB ADD SWAP1 KECCAK256 SWAP1 PUSH2 0x222 PUSH1 0x7 DUP9 MLOAD SWAP5 PUSH2 0x1FE DUP7 PUSH2 0x10A5 JUMP JUMPDEST CALLER DUP7 MSTORE PUSH2 0x20D PUSH1 0x2 DUP3 ADD PUSH2 0x11D5 JUMP JUMPDEST DUP14 DUP8 ADD MSTORE TIMESTAMP DUP11 DUP8 ADD MSTORE DUP14 PUSH1 0x60 DUP8 ADD MSTORE ADD PUSH2 0x11D5 JUMP JUMPDEST PUSH1 0x80 DUP5 ADD MSTORE DUP8 PUSH1 0xA0 DUP5 ADD MSTORE PUSH1 0xC0 DUP4 ADD MSTORE PUSH2 0x1447 JUMP JUMPDEST PUSH2 0x14F1 JUMP JUMPDEST SWAP4 DUP2 MLOAD SWAP3 DUP4 MSTORE DUP3 ADD MSTORE DUP1 PUSH2 0x255 CALLER SWAP6 PUSH1 0x40 DUP4 ADD SWAP1 PUSH2 0x1176 JUMP JUMPDEST SUB SWAP1 LOG3 STOP JUMPDEST PUSH2 0x267 SWAP1 PUSH1 0x9 DUP8 ADD PUSH2 0x1418 JUMP JUMPDEST CODESIZE PUSH2 0x1D1 JUMP JUMPDEST PUSH2 0x27A SWAP1 PUSH1 0x7 DUP9 ADD PUSH2 0x1309 JUMP JUMPDEST CODESIZE PUSH2 0x1C9 JUMP JUMPDEST PUSH1 0x0 DUP1 REVERT JUMPDEST CALLVALUE PUSH2 0x280 JUMPI PUSH1 0x40 CALLDATASIZE PUSH1 0x3 NOT ADD SLT PUSH2 0x280 JUMPI PUSH1 0x4 CALLDATALOAD PUSH1 0x1 PUSH1 0x1 PUSH1 0x40 SHL SUB DUP2 GT PUSH2 0x280 JUMPI PUSH2 0x2B5 SWAP1 CALLDATASIZE SWAP1 PUSH1 0x4 ADD PUSH2 0x10FD JUMP JUMPDEST PUSH2 0x2D1 PUSH1 0x20 PUSH1 0x24 CALLDATALOAD SWAP3 DUP2 PUSH1 0x40 MLOAD SWAP4 DUP3 DUP6 DUP1 SWAP5 MLOAD SWAP4 DUP5 SWAP3 ADD PUSH2 0x1153 JUMP JUMPDEST DUP2 ADD PUSH1 0x1 DUP2 MSTORE SUB ADD SWAP1 KECCAK256 SWAP1 DUP2 SLOAD DUP2 LT ISZERO PUSH2 0x280 JUMPI PUSH2 0x2EE SWAP2 PUSH2 0x12D7 JUMP JUMPDEST POP DUP1 SLOAD PUSH1 0x1 PUSH1 0x1 PUSH1 0xA0 SHL SUB AND PUSH2 0x391 PUSH2 0x309 PUSH1 0x1 DUP5 ADD PUSH2 0x11D5 JUMP JUMPDEST SWAP3 PUSH1 0x2 DUP2 ADD SLOAD PUSH2 0x37E PUSH2 0x31E PUSH1 0x3 DUP5 ADD PUSH2 0x11D5 JUMP JUMPDEST SWAP2 PUSH2 0x370 PUSH2 0x32E PUSH1 0x4 DUP7 ADD PUSH2 0x11D5 JUMP JUMPDEST SWAP2 PUSH2 0x340 PUSH1 0x6 PUSH1 0x5 DUP9 ADD SLOAD SWAP8 ADD PUSH2 0x11D5 JUMP JUMPDEST SWAP5 PUSH2 0x35D PUSH1 0x40 MLOAD SWAP11 DUP12 SWAP11 DUP12 MSTORE PUSH1 0xE0 PUSH1 0x20 DUP13 ADD MSTORE PUSH1 0xE0 DUP12 ADD SWAP1 PUSH2 0x1176 JUMP JUMPDEST SWAP2 PUSH1 0x40 DUP11 ADD MSTORE DUP9 DUP3 SUB PUSH1 0x60 DUP11 ADD MSTORE PUSH2 0x1176 JUMP JUMPDEST SWAP1 DUP7 DUP3 SUB PUSH1 0x80 DUP9 ADD MSTORE PUSH2 0x1176 JUMP JUMPDEST SWAP2 PUSH1 0xA0 DUP6 ADD MSTORE DUP4 DUP3 SUB PUSH1 0xC0 DUP6 ADD MSTORE PUSH2 0x1176 JUMP JUMPDEST SUB SWAP1 RETURN JUMPDEST CALLVALUE PUSH2 0x280 JUMPI PUSH2 0x100 CALLDATASIZE PUSH1 0x3 NOT ADD SLT PUSH2 0x280 JUMPI PUSH1 0x1 PUSH1 0x1 PUSH1 0x40 SHL SUB PUSH1 0x4 CALLDATALOAD DUP2 DUP2 GT PUSH2 0x280 JUMPI PUSH2 0x3C7 SWAP1 CALLDATASIZE SWAP1 PUSH1 0x4 ADD PUSH2 0x10FD JUMP JUMPDEST PUSH1 0x1 PUSH1 0x1 PUSH1 0xA0 SHL SUB PUSH1 0x24 CALLDATALOAD DUP2 DUP2 AND SWAP4 SWAP1 DUP5 SWAP1 SUB PUSH2 0x280 JUMPI PUSH1 0x44 CALLDATALOAD DUP2 DUP2 GT PUSH2 0x280 JUMPI PUSH2 0x3F6 SWAP1 CALLDATASIZE SWAP1 PUSH1 0x4 ADD PUSH2 0x10FD JUMP JUMPDEST PUSH1 0x64 CALLDATALOAD SWAP1 PUSH1 0x84 CALLDATALOAD DUP4 DUP2 GT PUSH2 0x280 JUMPI PUSH2 0x412 SWAP1 CALLDATASIZE SWAP1 PUSH1 0x4 ADD PUSH2 0x10FD JUMP JUMPDEST SWAP3 PUSH1 0xA4 CALLDATALOAD DUP2 DUP2 GT PUSH2 0x280 JUMPI PUSH2 0x42B SWAP1 CALLDATASIZE SWAP1 PUSH1 0x4 ADD PUSH2 0x10FD JUMP JUMPDEST SWAP4 PUSH1 0xC4 CALLDATALOAD DUP3 DUP2 GT PUSH2 0x280 JUMPI PUSH2 0x444 SWAP1 CALLDATASIZE SWAP1 PUSH1 0x4 ADD PUSH2 0x10FD JUMP JUMPDEST PUSH1 0xE4 CALLDATALOAD SWAP3 DUP4 GT PUSH2 0x280 JUMPI PUSH2 0x45D DUP9 SWAP4 CALLDATASIZE SWAP1 PUSH1 0x4 ADD PUSH2 0x10FD JUMP JUMPDEST SWAP6 PUSH1 0x40 MLOAD SWAP3 PUSH2 0x498 DUP10 PUSH1 0xC DUP8 MLOAD SWAP7 PUSH1 0x20 PUSH1 0x80 SWAP10 DUP2 DUP12 MSTORE ADD SWAP8 PUSH2 0x480 DUP2 DUP4 DUP12 PUSH2 0x1153 JUMP JUMPDEST DUP2 ADD PUSH1 0x0 DUP2 MSTORE DUP2 DUP11 MLOAD SWAP2 SUB ADD SWAP1 KECCAK256 ADD SLOAD AND CALLER EQ PUSH2 0x1511 JUMP JUMPDEST DUP11 ISZERO PUSH2 0x5F5 JUMPI SWAP6 PUSH2 0x584 SWAP6 DUP12 SWAP8 SWAP6 PUSH2 0x58B SWAP11 SWAP10 SWAP6 PUSH2 0x57A SWAP6 PUSH1 0x4 SWAP6 DUP12 SWAP10 DUP16 PUSH1 0x40 MLOAD SWAP1 MLOAD PUSH2 0x4C6 DUP2 DUP4 DUP9 PUSH2 0x1153 JUMP JUMPDEST DUP2 ADD PUSH1 0x0 DUP2 MSTORE DUP2 DUP8 MLOAD SWAP2 SUB ADD SWAP1 KECCAK256 SWAP7 PUSH1 0xC DUP9 ADD DUP1 SLOAD SWAP15 DUP16 PUSH1 0x1 PUSH1 0x1 PUSH1 0x60 SHL SUB PUSH1 0xA0 SHL AND OR SWAP1 SSTORE PUSH2 0x4F9 DUP8 PUSH1 0x2 DUP11 ADD PUSH2 0x1309 JUMP JUMPDEST DUP1 PUSH2 0x5EA JUMPI JUMPDEST POP DUP1 MLOAD PUSH2 0x5D8 JUMPI JUMPDEST POP DUP1 MLOAD PUSH2 0x5C5 JUMPI JUMPDEST POP DUP1 MLOAD PUSH2 0x5B2 JUMPI JUMPDEST POP DUP13 PUSH2 0x52B PUSH1 0x40 MLOAD SWAP3 DUP4 SWAP3 MLOAD SWAP3 DUP4 SWAP2 PUSH2 0x1153 JUMP JUMPDEST DUP2 ADD PUSH1 0x1 DUP2 MSTORE DUP2 DUP4 MLOAD SWAP2 SUB ADD SWAP1 KECCAK256 SWAP6 PUSH1 0x5 DUP5 ADD SLOAD SWAP3 PUSH1 0x40 MLOAD SWAP9 PUSH2 0x54D DUP11 PUSH2 0x10A5 JUMP JUMPDEST DUP10 MSTORE DUP3 MLOAD DUP10 ADD MSTORE TIMESTAMP PUSH1 0x40 DUP10 ADD MSTORE PUSH1 0x60 DUP9 ADD MSTORE PUSH2 0x56B PUSH1 0x7 DUP5 ADD PUSH2 0x11D5 JUMP JUMPDEST SWAP1 DUP8 ADD MSTORE PUSH1 0xA0 DUP7 ADD MSTORE ADD PUSH2 0x11D5 JUMP JUMPDEST PUSH1 0xC0 DUP4 ADD MSTORE PUSH2 0x1447 JUMP JUMPDEST AND SWAP2 PUSH2 0x14F1 JUMP JUMPDEST PUSH32 0x6840904F5B31827F74E1497360DA245F56E530C8C3DE3163A2D31F11493273C6 PUSH1 0x0 DUP1 LOG4 STOP JUMPDEST PUSH2 0x5BF SWAP1 PUSH1 0x7 DUP7 ADD PUSH2 0x1309 JUMP JUMPDEST DUP15 PUSH2 0x517 JUMP JUMPDEST PUSH2 0x5D2 SWAP1 PUSH1 0x6 DUP8 ADD PUSH2 0x1309 JUMP JUMPDEST DUP16 PUSH2 0x50F JUMP JUMPDEST PUSH2 0x5E4 SWAP1 DUP9 DUP9 ADD PUSH2 0x1309 JUMP JUMPDEST CODESIZE PUSH2 0x507 JUMP JUMPDEST PUSH1 0x5 DUP9 ADD SSTORE CODESIZE PUSH2 0x4FF JUMP JUMPDEST PUSH1 0x40 MLOAD PUSH3 0x461BCD PUSH1 0xE5 SHL DUP2 MSTORE DUP6 MLOAD PUSH1 0x4 DUP3 ADD MSTORE PUSH1 0x12 PUSH1 0x24 DUP3 ADD MSTORE PUSH18 0x105B185B585D081D1A59185AC81D985B1A59 PUSH1 0x72 SHL PUSH1 0x44 DUP3 ADD MSTORE PUSH1 0x64 SWAP1 REVERT JUMPDEST CALLVALUE PUSH2 0x280 JUMPI PUSH1 0x20 CALLDATASIZE PUSH1 0x3 NOT ADD SLT PUSH2 0x280 JUMPI PUSH1 0x4 CALLDATALOAD PUSH1 0x1 PUSH1 0x1 PUSH1 0x40 SHL SUB DUP2 GT PUSH2 0x280 JUMPI PUSH2 0x6E6 PUSH1 0x20 PUSH2 0x667 PUSH2 0x391 SWAP4 CALLDATASIZE SWAP1 PUSH1 0x4 ADD PUSH2 0x10FD JUMP JUMPDEST PUSH1 0x60 PUSH2 0x1C0 PUSH1 0x40 MLOAD PUSH2 0x678 DUP2 PUSH2 0x10C0 JUMP JUMPDEST DUP3 DUP2 MSTORE DUP3 DUP6 DUP3 ADD MSTORE DUP3 PUSH1 0x40 DUP3 ADD MSTORE DUP3 DUP1 DUP3 ADD MSTORE DUP3 PUSH1 0x80 DUP3 ADD MSTORE PUSH1 0x0 PUSH1 0xA0 DUP3 ADD MSTORE DUP3 PUSH1 0xC0 DUP3 ADD MSTORE DUP3 PUSH1 0xE0 DUP3 ADD MSTORE DUP3 PUSH2 0x100 DUP3 ADD MSTORE DUP3 PUSH2 0x120 DUP3 ADD MSTORE PUSH1 0x0 PUSH2 0x140 DUP3 ADD MSTORE PUSH1 0x0 PUSH2 0x160 DUP3 ADD MSTORE PUSH1 0x0 PUSH2 0x180 DUP3 ADD MSTORE DUP3 PUSH2 0x1A0 DUP3 ADD MSTORE ADD MSTORE DUP2 PUSH1 0x40 MLOAD SWAP4 DUP3 DUP6 DUP1 SWAP5 MLOAD SWAP4 DUP5 SWAP3 ADD PUSH2 0x1153 JUMP JUMPDEST DUP2 ADD PUSH1 0x0 DUP2 MSTORE SUB ADD SWAP1 KECCAK256 PUSH2 0x7E6 PUSH1 0xE PUSH1 0x40 MLOAD SWAP3 PUSH2 0x702 DUP5 PUSH2 0x10C0 JUMP JUMPDEST PUSH2 0x70B DUP2 PUSH2 0x11D5 JUMP JUMPDEST DUP5 MSTORE PUSH2 0x719 PUSH1 0x1 DUP3 ADD PUSH2 0x11D5 JUMP JUMPDEST PUSH1 0x20 DUP6 ADD MSTORE PUSH2 0x72A PUSH1 0x2 DUP3 ADD PUSH2 0x11D5 JUMP JUMPDEST PUSH1 0x40 DUP6 ADD MSTORE PUSH2 0x73B PUSH1 0x3 DUP3 ADD PUSH2 0x11D5 JUMP JUMPDEST PUSH1 0x60 DUP6 ADD MSTORE PUSH2 0x74C PUSH1 0x4 DUP3 ADD PUSH2 0x11D5 JUMP JUMPDEST PUSH1 0x80 DUP6 ADD MSTORE PUSH1 0x5 DUP2 ADD SLOAD PUSH1 0xA0 DUP6 ADD MSTORE PUSH2 0x767 PUSH1 0x6 DUP3 ADD PUSH2 0x11D5 JUMP JUMPDEST PUSH1 0xC0 DUP6 ADD MSTORE PUSH2 0x778 PUSH1 0x7 DUP3 ADD PUSH2 0x11D5 JUMP JUMPDEST PUSH1 0xE0 DUP6 ADD MSTORE PUSH2 0x789 PUSH1 0x8 DUP3 ADD PUSH2 0x1565 JUMP JUMPDEST PUSH2 0x100 DUP6 ADD MSTORE PUSH2 0x79B PUSH1 0x9 DUP3 ADD PUSH2 0x1565 JUMP JUMPDEST PUSH2 0x120 DUP6 ADD MSTORE PUSH1 0xA DUP2 ADD SLOAD PUSH2 0x140 DUP6 ADD MSTORE PUSH1 0xB DUP2 ADD SLOAD PUSH1 0x1 PUSH1 0x1 PUSH1 0xA0 SHL SUB SWAP1 DUP2 AND PUSH2 0x160 DUP7 ADD MSTORE PUSH1 0xC DUP3 ADD SLOAD AND PUSH2 0x180 DUP6 ADD MSTORE PUSH2 0x7DA PUSH1 0xD DUP3 ADD PUSH2 0x11D5 JUMP JUMPDEST PUSH2 0x1A0 DUP6 ADD MSTORE ADD PUSH2 0x11D5 JUMP JUMPDEST PUSH2 0x1C0 DUP3 ADD MSTORE PUSH1 0x40 MLOAD SWAP2 DUP3 SWAP2 PUSH1 0x20 DUP4 MSTORE PUSH2 0x1C0 PUSH2 0x938 PUSH2 0x8EE PUSH2 0x8D6 PUSH2 0x8BE PUSH2 0x8A7 PUSH2 0x887 PUSH2 0x871 PUSH2 0x85B PUSH2 0x845 PUSH2 0x82D DUP14 PUSH2 0x200 DUP14 MLOAD SWAP2 PUSH2 0x1E0 PUSH1 0x20 DUP3 ADD MSTORE ADD SWAP1 PUSH2 0x1176 JUMP JUMPDEST DUP14 PUSH1 0x20 DUP14 ADD MLOAD SWAP1 PUSH1 0x40 PUSH1 0x1F NOT DUP3 DUP6 SUB ADD SWAP2 ADD MSTORE PUSH2 0x1176 JUMP JUMPDEST PUSH1 0x40 DUP12 ADD MLOAD DUP14 DUP3 SUB PUSH1 0x1F NOT ADD PUSH1 0x60 DUP16 ADD MSTORE PUSH2 0x1176 JUMP JUMPDEST PUSH1 0x60 DUP11 ADD MLOAD DUP13 DUP3 SUB PUSH1 0x1F NOT ADD PUSH1 0x80 DUP15 ADD MSTORE PUSH2 0x1176 JUMP JUMPDEST PUSH1 0x80 DUP10 ADD MLOAD DUP12 DUP3 SUB PUSH1 0x1F NOT ADD PUSH1 0xA0 DUP14 ADD MSTORE PUSH2 0x1176 JUMP JUMPDEST PUSH1 0xA0 DUP9 ADD MLOAD PUSH1 0xC0 DUP12 ADD MSTORE PUSH1 0xC0 DUP9 ADD MLOAD PUSH1 0x1F NOT DUP12 DUP4 SUB ADD PUSH1 0xE0 DUP13 ADD MSTORE PUSH2 0x1176 JUMP JUMPDEST PUSH1 0xE0 DUP8 ADD MLOAD DUP10 DUP3 SUB PUSH1 0x1F NOT ADD PUSH2 0x100 DUP12 ADD MSTORE PUSH2 0x1176 JUMP JUMPDEST PUSH2 0x100 DUP7 ADD MLOAD DUP9 DUP3 SUB PUSH1 0x1F NOT ADD PUSH2 0x120 DUP11 ADD MSTORE PUSH2 0x127B JUMP JUMPDEST PUSH2 0x120 DUP6 ADD MLOAD DUP8 DUP3 SUB PUSH1 0x1F NOT ADD PUSH2 0x140 DUP10 ADD MSTORE PUSH2 0x127B JUMP JUMPDEST PUSH2 0x140 DUP5 ADD MLOAD PUSH2 0x160 DUP8 ADD MSTORE PUSH1 0x1 DUP1 PUSH1 0xA0 SHL SUB PUSH2 0x160 DUP6 ADD MLOAD AND PUSH2 0x180 DUP8 ADD MSTORE PUSH1 0x1 DUP1 PUSH1 0xA0 SHL SUB PUSH2 0x180 DUP6 ADD MLOAD AND PUSH2 0x1A0 DUP8 ADD MSTORE PUSH2 0x1A0 DUP5 ADD MLOAD PUSH1 0x1F NOT DUP8 DUP4 SUB ADD DUP5 DUP9 ADD MSTORE PUSH2 0x1176 JUMP JUMPDEST SWAP2 ADD MLOAD DUP4 DUP3 SUB PUSH1 0x1F NOT ADD PUSH2 0x1E0 DUP6 ADD MSTORE PUSH2 0x1176 JUMP JUMPDEST CALLVALUE PUSH2 0x280 JUMPI PUSH1 0x20 CALLDATASIZE PUSH1 0x3 NOT ADD SLT PUSH2 0x280 JUMPI PUSH1 0x4 CALLDATALOAD PUSH1 0x1 PUSH1 0x1 PUSH1 0x40 SHL SUB DUP2 GT PUSH2 0x280 JUMPI PUSH2 0x97D SWAP1 CALLDATASIZE SWAP1 PUSH1 0x4 ADD PUSH2 0x10FD JUMP JUMPDEST PUSH1 0x40 MLOAD DUP2 DUP2 DUP1 SWAP4 MLOAD PUSH1 0x20 DUP2 SWAP4 ADD SWAP2 PUSH2 0x994 SWAP3 PUSH2 0x1153 JUMP JUMPDEST DUP2 ADD PUSH1 0x0 DUP2 MSTORE SUB PUSH1 0x20 ADD SWAP1 KECCAK256 PUSH2 0x9A9 DUP2 PUSH2 0x11D5 JUMP JUMPDEST PUSH2 0x9B5 PUSH1 0x1 DUP4 ADD PUSH2 0x11D5 JUMP JUMPDEST SWAP2 PUSH2 0x9C2 PUSH1 0x2 DUP3 ADD PUSH2 0x11D5 JUMP JUMPDEST SWAP1 PUSH2 0x9CF PUSH1 0x3 DUP3 ADD PUSH2 0x11D5 JUMP JUMPDEST PUSH2 0x9DB PUSH1 0x4 DUP4 ADD PUSH2 0x11D5 JUMP JUMPDEST PUSH1 0x5 DUP4 ADD SLOAD SWAP2 SWAP1 PUSH2 0x9EE PUSH1 0x6 DUP6 ADD PUSH2 0x11D5 JUMP JUMPDEST PUSH2 0x9FA PUSH1 0x7 DUP7 ADD PUSH2 0x11D5 JUMP JUMPDEST SWAP1 PUSH1 0xA DUP7 ADD SLOAD SWAP5 PUSH1 0x1 PUSH1 0xA0 SHL PUSH1 0x1 SWAP1 SUB SWAP4 DUP5 PUSH1 0xB DUP10 ADD SLOAD AND SWAP5 PUSH1 0xC DUP10 ADD SLOAD AND SWAP6 PUSH1 0xD DUP10 ADD PUSH2 0xA27 SWAP1 PUSH2 0x11D5 JUMP JUMPDEST SWAP9 PUSH1 0xE ADD PUSH2 0xA34 SWAP1 PUSH2 0x11D5 JUMP JUMPDEST SWAP10 PUSH1 0x40 MLOAD SWAP13 DUP14 SWAP13 DUP14 PUSH2 0x1A0 SWAP1 DUP2 DUP2 MSTORE ADD PUSH2 0xA4D SWAP2 PUSH2 0x1176 JUMP JUMPDEST DUP14 DUP2 SUB PUSH1 0x20 DUP16 ADD MSTORE PUSH2 0xA5E SWAP2 PUSH2 0x1176 JUMP JUMPDEST DUP13 DUP2 SUB PUSH1 0x40 DUP15 ADD MSTORE PUSH2 0xA6F SWAP2 PUSH2 0x1176 JUMP JUMPDEST DUP12 DUP2 SUB PUSH1 0x60 DUP14 ADD MSTORE PUSH2 0xA80 SWAP2 PUSH2 0x1176 JUMP JUMPDEST DUP11 DUP2 SUB PUSH1 0x80 DUP13 ADD MSTORE PUSH2 0xA91 SWAP2 PUSH2 0x1176 JUMP JUMPDEST SWAP1 PUSH1 0xA0 DUP11 ADD MSTORE DUP9 DUP2 SUB PUSH1 0xC0 DUP11 ADD MSTORE PUSH2 0xAA8 SWAP2 PUSH2 0x1176 JUMP JUMPDEST DUP8 DUP2 SUB PUSH1 0xE0 DUP10 ADD MSTORE PUSH2 0xAB9 SWAP2 PUSH2 0x1176 JUMP JUMPDEST SWAP3 PUSH2 0x100 DUP8 ADD MSTORE PUSH2 0x120 DUP7 ADD MSTORE PUSH2 0x140 DUP6 ADD MSTORE DUP4 DUP2 SUB PUSH2 0x160 DUP6 ADD MSTORE PUSH2 0xADE SWAP2 PUSH2 0x1176 JUMP JUMPDEST DUP3 DUP2 SUB PUSH2 0x180 DUP5 ADD MSTORE PUSH2 0x391 SWAP2 PUSH2 0x1176 JUMP JUMPDEST CALLVALUE PUSH2 0x280 JUMPI PUSH1 0x20 DUP1 PUSH1 0x3 NOT CALLDATASIZE ADD SLT PUSH2 0x280 JUMPI PUSH1 0x4 CALLDATALOAD PUSH1 0x1 PUSH1 0x1 PUSH1 0x40 SHL SUB DUP2 GT PUSH2 0x280 JUMPI PUSH2 0xB21 SWAP1 CALLDATASIZE SWAP1 PUSH1 0x4 ADD PUSH2 0x10FD JUMP JUMPDEST SWAP1 DUP1 PUSH2 0xB36 PUSH1 0x40 MLOAD SWAP4 DUP5 DUP2 MLOAD SWAP4 DUP5 SWAP3 ADD PUSH2 0x1153 JUMP JUMPDEST DUP3 ADD SWAP2 DUP2 DUP2 PUSH1 0x1 SWAP5 DUP6 DUP2 MSTORE SUB ADD SWAP1 KECCAK256 SWAP2 DUP3 SLOAD SWAP2 PUSH2 0xB52 DUP4 PUSH2 0x154E JUMP JUMPDEST SWAP3 PUSH2 0xB60 PUSH1 0x40 MLOAD SWAP5 DUP6 PUSH2 0x10DC JUMP JUMPDEST DUP1 DUP5 MSTORE DUP2 DUP5 ADD DUP1 SWAP6 PUSH1 0x0 MSTORE DUP3 PUSH1 0x0 KECCAK256 PUSH1 0x0 SWAP2 JUMPDEST DUP4 DUP4 LT PUSH2 0xC4C JUMPI POP POP POP POP PUSH1 0x40 MLOAD SWAP3 DUP2 DUP5 ADD SWAP1 DUP3 DUP6 MSTORE MLOAD DUP1 SWAP2 MSTORE PUSH1 0x40 DUP5 ADD SWAP2 PUSH1 0x40 DUP3 PUSH1 0x5 SHL DUP7 ADD ADD SWAP6 SWAP3 PUSH1 0x0 SWAP1 JUMPDEST DUP4 DUP3 LT PUSH2 0xBAE JUMPI DUP7 DUP9 SUB DUP8 RETURN JUMPDEST SWAP1 SWAP2 SWAP3 SWAP4 SWAP5 DUP4 DUP1 PUSH2 0xC3B DUP4 SWAP11 PUSH1 0x3F NOT DUP12 DUP3 SUB ADD DUP7 MSTORE DUP10 MLOAD PUSH1 0x1 DUP1 PUSH1 0xA0 SHL SUB DUP2 MLOAD AND DUP3 MSTORE PUSH2 0xC1E PUSH2 0xC0B PUSH2 0xBEE DUP7 DUP5 ADD MLOAD PUSH1 0xE0 DUP9 DUP8 ADD MSTORE PUSH1 0xE0 DUP7 ADD SWAP1 PUSH2 0x1176 JUMP JUMPDEST PUSH1 0x40 DUP5 ADD MLOAD PUSH1 0x40 DUP7 ADD MSTORE PUSH1 0x60 DUP1 DUP6 ADD MLOAD SWAP1 DUP7 DUP4 SUB SWAP1 DUP8 ADD MSTORE PUSH2 0x1176 JUMP JUMPDEST PUSH1 0x80 DUP1 DUP5 ADD MLOAD SWAP1 DUP6 DUP4 SUB SWAP1 DUP7 ADD MSTORE PUSH2 0x1176 JUMP JUMPDEST SWAP2 PUSH1 0xA0 DUP1 DUP4 ADD MLOAD SWAP1 DUP3 ADD MSTORE PUSH1 0xC0 DUP1 SWAP3 ADD MLOAD SWAP2 DUP2 DUP5 SUB SWAP2 ADD MSTORE PUSH2 0x1176 JUMP JUMPDEST SWAP10 SWAP8 ADD SWAP6 SWAP5 SWAP4 SWAP2 SWAP1 SWAP2 ADD SWAP2 ADD PUSH2 0xBA1 JUMP JUMPDEST SWAP5 PUSH1 0x7 DUP6 DUP3 SWAP10 SWAP8 PUSH1 0x40 SWAP10 SWAP8 SWAP10 MLOAD PUSH2 0xC62 DUP2 PUSH2 0x10A5 JUMP JUMPDEST DUP6 SLOAD PUSH1 0x1 PUSH1 0x1 PUSH1 0xA0 SHL SUB AND DUP2 MSTORE PUSH2 0xC7A DUP6 DUP8 ADD PUSH2 0x11D5 JUMP JUMPDEST DUP4 DUP3 ADD MSTORE PUSH1 0x2 DUP7 ADD SLOAD PUSH1 0x40 DUP3 ADD MSTORE PUSH2 0xC94 PUSH1 0x3 DUP8 ADD PUSH2 0x11D5 JUMP JUMPDEST PUSH1 0x60 DUP3 ADD MSTORE PUSH2 0xCA5 PUSH1 0x4 DUP8 ADD PUSH2 0x11D5 JUMP JUMPDEST PUSH1 0x80 DUP3 ADD MSTORE PUSH1 0x5 DUP7 ADD SLOAD PUSH1 0xA0 DUP3 ADD MSTORE PUSH2 0xCC0 PUSH1 0x6 DUP8 ADD PUSH2 0x11D5 JUMP JUMPDEST PUSH1 0xC0 DUP3 ADD MSTORE DUP2 MSTORE ADD SWAP3 ADD SWAP3 ADD SWAP2 SWAP1 SWAP7 SWAP5 SWAP7 SWAP6 SWAP4 SWAP6 PUSH2 0xB73 JUMP JUMPDEST CALLVALUE PUSH2 0x280 JUMPI PUSH2 0x180 CALLDATASIZE PUSH1 0x3 NOT ADD SLT PUSH2 0x280 JUMPI PUSH1 0x4 CALLDATALOAD PUSH1 0x1 PUSH1 0x1 PUSH1 0x40 SHL SUB DUP2 GT PUSH2 0x280 JUMPI PUSH2 0xD0A SWAP1 CALLDATASIZE SWAP1 PUSH1 0x4 ADD PUSH2 0x10FD JUMP JUMPDEST PUSH1 0x24 CALLDATALOAD PUSH1 0x1 PUSH1 0x1 PUSH1 0x40 SHL SUB DUP2 GT PUSH2 0x280 JUMPI PUSH2 0xD29 SWAP1 CALLDATASIZE SWAP1 PUSH1 0x4 ADD PUSH2 0x10FD JUMP JUMPDEST PUSH1 0x44 CALLDATALOAD PUSH1 0x1 PUSH1 0x1 PUSH1 0x40 SHL SUB DUP2 GT PUSH2 0x280 JUMPI PUSH2 0xD48 SWAP1 CALLDATASIZE SWAP1 PUSH1 0x4 ADD PUSH2 0x10FD JUMP JUMPDEST PUSH1 0x64 CALLDATALOAD PUSH1 0x1 PUSH1 0x1 PUSH1 0x40 SHL SUB DUP2 GT PUSH2 0x280 JUMPI PUSH2 0xD67 SWAP1 CALLDATASIZE SWAP1 PUSH1 0x4 ADD PUSH2 0x10FD JUMP JUMPDEST PUSH1 0x84 CALLDATALOAD PUSH1 0x1 PUSH1 0x1 PUSH1 0x40 SHL SUB DUP2 GT PUSH2 0x280 JUMPI PUSH2 0xD86 SWAP1 CALLDATASIZE SWAP1 PUSH1 0x4 ADD PUSH2 0x10FD JUMP JUMPDEST PUSH1 0xC4 CALLDATALOAD PUSH1 0x1 PUSH1 0x1 PUSH1 0x40 SHL SUB DUP2 GT PUSH2 0x280 JUMPI PUSH2 0xDA5 SWAP1 CALLDATASIZE SWAP1 PUSH1 0x4 ADD PUSH2 0x10FD JUMP JUMPDEST SWAP2 PUSH1 0xE4 CALLDATALOAD PUSH1 0x1 PUSH1 0x1 PUSH1 0x40 SHL SUB DUP2 GT PUSH2 0x280 JUMPI PUSH2 0xDC5 SWAP1 CALLDATASIZE SWAP1 PUSH1 0x4 ADD PUSH2 0x10FD JUMP JUMPDEST SWAP5 PUSH2 0x104 CALLDATALOAD PUSH1 0x1 PUSH1 0x1 PUSH1 0x40 SHL SUB DUP2 GT PUSH2 0x280 JUMPI PUSH2 0xDE6 SWAP1 CALLDATASIZE SWAP1 PUSH1 0x4 ADD PUSH2 0x10FD JUMP JUMPDEST PUSH2 0x124 CALLDATALOAD PUSH1 0x1 PUSH1 0x1 PUSH1 0x40 SHL SUB DUP2 GT PUSH2 0x280 JUMPI PUSH2 0xE06 SWAP1 CALLDATASIZE SWAP1 PUSH1 0x4 ADD PUSH2 0x10FD JUMP JUMPDEST SWAP2 PUSH2 0x144 CALLDATALOAD PUSH1 0x1 PUSH1 0x1 PUSH1 0x40 SHL SUB DUP2 GT PUSH2 0x280 JUMPI PUSH2 0xE27 SWAP1 CALLDATASIZE SWAP1 PUSH1 0x4 ADD PUSH2 0x10FD JUMP JUMPDEST SWAP4 PUSH2 0x164 CALLDATALOAD PUSH1 0x1 PUSH1 0x1 PUSH1 0x40 SHL SUB DUP2 GT PUSH2 0x280 JUMPI PUSH2 0xE48 SWAP1 CALLDATASIZE SWAP1 PUSH1 0x4 ADD PUSH2 0x10FD JUMP JUMPDEST SWAP1 PUSH2 0xE75 PUSH2 0xE65 PUSH1 0x20 DUP14 DUP2 PUSH1 0x40 MLOAD SWAP4 DUP3 DUP6 DUP1 SWAP5 MLOAD SWAP4 DUP5 SWAP3 ADD PUSH2 0x1153 JUMP JUMPDEST DUP2 ADD PUSH1 0x0 DUP2 MSTORE SUB ADD SWAP1 KECCAK256 SLOAD PUSH2 0x119B JUMP JUMPDEST PUSH2 0x1060 JUMPI DUP11 SWAP6 PUSH2 0xED5 PUSH2 0xF39 SWAP3 PUSH2 0xEBF PUSH2 0xF42 SWAP7 PUSH2 0xEB6 PUSH2 0xEA5 PUSH1 0x20 DUP14 DUP2 PUSH1 0x40 MLOAD SWAP4 DUP3 DUP6 DUP1 SWAP5 MLOAD SWAP4 DUP5 SWAP3 ADD PUSH2 0x1153 JUMP JUMPDEST DUP2 ADD PUSH1 0x0 DUP2 MSTORE SUB ADD SWAP1 KECCAK256 SWAP12 DUP13 PUSH2 0x1309 JUMP JUMPDEST PUSH1 0x1 DUP12 ADD PUSH2 0x1309 JUMP JUMPDEST PUSH2 0xECC DUP13 PUSH1 0x2 DUP12 ADD PUSH2 0x1309 JUMP JUMPDEST PUSH1 0x3 DUP10 ADD PUSH2 0x1309 JUMP JUMPDEST PUSH2 0xEE2 DUP9 PUSH1 0x4 DUP10 ADD PUSH2 0x1309 JUMP JUMPDEST PUSH2 0xEF8 PUSH1 0xA4 CALLDATALOAD SWAP10 DUP11 PUSH1 0x5 DUP11 ADD SSTORE PUSH1 0x6 DUP10 ADD PUSH2 0x1309 JUMP JUMPDEST PUSH2 0xF05 DUP12 PUSH1 0x7 DUP10 ADD PUSH2 0x1309 JUMP JUMPDEST TIMESTAMP PUSH1 0xA DUP9 ADD SSTORE PUSH1 0xB DUP8 ADD PUSH1 0x1 PUSH1 0x1 PUSH1 0x60 SHL SUB PUSH1 0xA0 SHL SWAP1 CALLER DUP3 DUP3 SLOAD AND OR SWAP1 SSTORE PUSH1 0xC DUP9 ADD SWAP1 CALLER SWAP1 DUP3 SLOAD AND OR SWAP1 SSTORE PUSH1 0xD DUP8 ADD PUSH2 0x1309 JUMP JUMPDEST PUSH1 0xE DUP6 ADD PUSH2 0x1309 JUMP JUMPDEST DUP1 MLOAD PUSH2 0x104D JUMPI JUMPDEST POP DUP1 MLOAD PUSH2 0x103A JUMPI JUMPDEST POP POP PUSH1 0x40 MLOAD PUSH1 0x20 DUP2 DUP8 MLOAD PUSH2 0xF68 DUP2 DUP4 DUP6 DUP13 ADD PUSH2 0x1153 JUMP JUMPDEST DUP2 ADD PUSH1 0x1 DUP2 MSTORE SUB ADD SWAP1 KECCAK256 SWAP2 PUSH1 0x40 MLOAD SWAP4 PUSH2 0xF80 DUP6 PUSH2 0x10A5 JUMP JUMPDEST CALLER DUP6 MSTORE PUSH1 0x20 DUP6 ADD MSTORE TIMESTAMP PUSH1 0x40 DUP6 ADD MSTORE PUSH1 0x40 MLOAD SWAP5 PUSH1 0x40 DUP7 ADD SWAP6 DUP1 DUP8 LT PUSH1 0x1 PUSH1 0x1 PUSH1 0x40 SHL SUB DUP9 GT OR PUSH2 0x1024 JUMPI PUSH2 0xFF3 SWAP7 PUSH1 0x40 MSTORE PUSH1 0x1F DUP2 MSTORE PUSH32 0x47656E657369733A20536572746966696B61742044697465726269746B616E00 PUSH1 0x20 DUP3 ADD MSTORE PUSH1 0x60 DUP7 ADD MSTORE PUSH1 0x80 DUP6 ADD MSTORE PUSH1 0xA0 DUP5 ADD MSTORE PUSH1 0xC0 DUP4 ADD MSTORE PUSH2 0x1447 JUMP JUMPDEST PUSH2 0xFFD CALLER SWAP2 PUSH2 0x14F1 JUMP JUMPDEST PUSH32 0xA4C0A4309FFACEFC99DD96B819696B5178F5252ACABBF700EC8BEE266AC01CD7 PUSH1 0x0 DUP1 LOG3 STOP JUMPDEST PUSH4 0x4E487B71 PUSH1 0xE0 SHL PUSH1 0x0 MSTORE PUSH1 0x41 PUSH1 0x4 MSTORE PUSH1 0x24 PUSH1 0x0 REVERT JUMPDEST PUSH1 0x9 PUSH2 0x1046 SWAP3 ADD PUSH2 0x1418 JUMP JUMPDEST DUP6 DUP1 PUSH2 0xF51 JUMP JUMPDEST PUSH2 0x105A SWAP1 PUSH1 0x8 DUP5 ADD PUSH2 0x1418 JUMP JUMPDEST DUP8 PUSH2 0xF49 JUMP JUMPDEST PUSH1 0x40 MLOAD PUSH3 0x461BCD PUSH1 0xE5 SHL DUP2 MSTORE PUSH1 0x20 PUSH1 0x4 DUP3 ADD MSTORE PUSH1 0x17 PUSH1 0x24 DUP3 ADD MSTORE PUSH32 0x4944204B6F692073756461682074657264616674617221000000000000000000 PUSH1 0x44 DUP3 ADD MSTORE PUSH1 0x64 SWAP1 REVERT JUMPDEST PUSH1 0xE0 DUP2 ADD SWAP1 DUP2 LT PUSH1 0x1 PUSH1 0x1 PUSH1 0x40 SHL SUB DUP3 GT OR PUSH2 0x1024 JUMPI PUSH1 0x40 MSTORE JUMP JUMPDEST PUSH2 0x1E0 DUP2 ADD SWAP1 DUP2 LT PUSH1 0x1 PUSH1 0x1 PUSH1 0x40 SHL SUB DUP3 GT OR PUSH2 0x1024 JUMPI PUSH1 0x40 MSTORE JUMP JUMPDEST SWAP1 PUSH1 0x1F DUP1 NOT SWAP2 ADD AND DUP2 ADD SWAP1 DUP2 LT PUSH1 0x1 PUSH1 0x1 PUSH1 0x40 SHL SUB DUP3 GT OR PUSH2 0x1024 JUMPI PUSH1 0x40 MSTORE JUMP JUMPDEST DUP2 PUSH1 0x1F DUP3 ADD SLT ISZERO PUSH2 0x280 JUMPI DUP1 CALLDATALOAD SWAP1 PUSH1 0x1 PUSH1 0x1 PUSH1 0x40 SHL SUB DUP3 GT PUSH2 0x1024 JUMPI PUSH1 0x40 MLOAD SWAP3 PUSH2 0x1131 PUSH1 0x1F DUP5 ADD PUSH1 0x1F NOT AND PUSH1 0x20 ADD DUP6 PUSH2 0x10DC JUMP JUMPDEST DUP3 DUP5 MSTORE PUSH1 0x20 DUP4 DUP4 ADD ADD GT PUSH2 0x280 JUMPI DUP2 PUSH1 0x0 SWAP3 PUSH1 0x20 DUP1 SWAP4 ADD DUP4 DUP7 ADD CALLDATACOPY DUP4 ADD ADD MSTORE SWAP1 JUMP JUMPDEST PUSH1 0x0 JUMPDEST DUP4 DUP2 LT PUSH2 0x1166 JUMPI POP POP PUSH1 0x0 SWAP2 ADD MSTORE JUMP JUMPDEST DUP2 DUP2 ADD MLOAD DUP4 DUP3 ADD MSTORE PUSH1 0x20 ADD PUSH2 0x1156 JUMP JUMPDEST SWAP1 PUSH1 0x20 SWAP2 PUSH2 0x118F DUP2 MLOAD DUP1 SWAP3 DUP2 DUP6 MSTORE DUP6 DUP1 DUP7 ADD SWAP2 ADD PUSH2 0x1153 JUMP JUMPDEST PUSH1 0x1F ADD PUSH1 0x1F NOT AND ADD ADD SWAP1 JUMP JUMPDEST SWAP1 PUSH1 0x1 DUP3 DUP2 SHR SWAP3 AND DUP1 ISZERO PUSH2 0x11CB JUMPI JUMPDEST PUSH1 0x20 DUP4 LT EQ PUSH2 0x11B5 JUMPI JUMP JUMPDEST PUSH4 0x4E487B71 PUSH1 0xE0 SHL PUSH1 0x0 MSTORE PUSH1 0x22 PUSH1 0x4 MSTORE PUSH1 0x24 PUSH1 0x0 REVERT JUMPDEST SWAP2 PUSH1 0x7F AND SWAP2 PUSH2 0x11AA JUMP JUMPDEST SWAP1 PUSH1 0x40 MLOAD SWAP2 DUP3 PUSH1 0x0 DUP3 SLOAD SWAP3 PUSH2 0x11E9 DUP5 PUSH2 0x119B JUMP JUMPDEST SWAP1 DUP2 DUP5 MSTORE PUSH1 0x1 SWAP5 DUP6 DUP2 AND SWAP1 DUP2 PUSH1 0x0 EQ PUSH2 0x1258 JUMPI POP PUSH1 0x1 EQ PUSH2 0x1215 JUMPI JUMPDEST POP POP PUSH2 0x1213 SWAP3 POP SUB DUP4 PUSH2 0x10DC JUMP JUMPDEST JUMP JUMPDEST SWAP1 SWAP4 SWAP2 POP PUSH1 0x0 MSTORE PUSH1 0x20 SWAP1 DUP2 PUSH1 0x0 KECCAK256 SWAP4 PUSH1 0x0 SWAP2 JUMPDEST DUP2 DUP4 LT PUSH2 0x1240 JUMPI POP POP PUSH2 0x1213 SWAP4 POP DUP3 ADD ADD CODESIZE DUP1 PUSH2 0x1205 JUMP JUMPDEST DUP6 SLOAD DUP9 DUP5 ADD DUP6 ADD MSTORE SWAP5 DUP6 ADD SWAP5 DUP8 SWAP5 POP SWAP2 DUP4 ADD SWAP2 PUSH2 0x1228 JUMP JUMPDEST SWAP2 POP POP PUSH2 0x1213 SWAP5 POP PUSH1 0x20 SWAP3 POP PUSH1 0xFF NOT AND DUP3 DUP5 ADD MSTORE ISZERO ISZERO PUSH1 0x5 SHL DUP3 ADD ADD CODESIZE DUP1 PUSH2 0x1205 JUMP JUMPDEST SWAP1 DUP1 DUP3 MLOAD SWAP1 DUP2 DUP2 MSTORE PUSH1 0x20 DUP1 SWAP2 ADD SWAP3 DUP2 DUP1 DUP5 PUSH1 0x5 SHL DUP4 ADD ADD SWAP6 ADD SWAP4 PUSH1 0x0 SWAP2 JUMPDEST DUP5 DUP4 LT PUSH2 0x12A9 JUMPI POP POP POP POP POP POP SWAP1 JUMP JUMPDEST SWAP1 SWAP2 SWAP3 SWAP4 SWAP5 SWAP6 DUP5 DUP1 PUSH2 0x12C7 PUSH1 0x1 SWAP4 PUSH1 0x1F NOT DUP7 DUP3 SUB ADD DUP8 MSTORE DUP11 MLOAD PUSH2 0x1176 JUMP JUMPDEST SWAP9 ADD SWAP4 ADD SWAP4 ADD SWAP2 SWAP5 SWAP4 SWAP3 SWAP1 PUSH2 0x1299 JUMP JUMPDEST DUP1 SLOAD DUP3 LT ISZERO PUSH2 0x12F3 JUMPI PUSH1 0x0 MSTORE PUSH1 0x7 PUSH1 0x20 PUSH1 0x0 KECCAK256 SWAP2 MUL ADD SWAP1 PUSH1 0x0 SWAP1 JUMP JUMPDEST PUSH4 0x4E487B71 PUSH1 0xE0 SHL PUSH1 0x0 MSTORE PUSH1 0x32 PUSH1 0x4 MSTORE PUSH1 0x24 PUSH1 0x0 REVERT JUMPDEST SWAP2 SWAP1 SWAP2 DUP3 MLOAD PUSH1 0x1 PUSH1 0x1 PUSH1 0x40 SHL SUB DUP2 GT PUSH2 0x1024 JUMPI PUSH2 0x1326 DUP3 SLOAD PUSH2 0x119B JUMP JUMPDEST PUSH1 0x1F DUP2 GT PUSH2 0x13D0 JUMPI JUMPDEST POP PUSH1 0x20 DUP1 PUSH1 0x1F DUP4 GT PUSH1 0x1 EQ PUSH2 0x136C JUMPI POP DUP2 SWAP3 SWAP4 SWAP5 PUSH1 0x0 SWAP3 PUSH2 0x1361 JUMPI JUMPDEST POP POP DUP2 PUSH1 0x1 SHL SWAP2 PUSH1 0x0 NOT SWAP1 PUSH1 0x3 SHL SHR NOT AND OR SWAP1 SSTORE JUMP JUMPDEST ADD MLOAD SWAP1 POP CODESIZE DUP1 PUSH2 0x134B JUMP JUMPDEST SWAP1 PUSH1 0x1F NOT DUP4 AND SWAP6 DUP5 PUSH1 0x0 MSTORE DUP3 PUSH1 0x0 KECCAK256 SWAP3 PUSH1 0x0 SWAP1 JUMPDEST DUP9 DUP3 LT PUSH2 0x13B8 JUMPI POP POP DUP4 PUSH1 0x1 SWAP6 SWAP7 SWAP8 LT PUSH2 0x139F JUMPI JUMPDEST POP POP POP DUP2 SHL ADD SWAP1 SSTORE JUMP JUMPDEST ADD MLOAD PUSH1 0x0 NOT PUSH1 0xF8 DUP5 PUSH1 0x3 SHL AND SHR NOT AND SWAP1 SSTORE CODESIZE DUP1 DUP1 PUSH2 0x1395 JUMP JUMPDEST DUP1 PUSH1 0x1 DUP6 SWAP7 DUP3 SWAP5 SWAP7 DUP7 ADD MLOAD DUP2 SSTORE ADD SWAP6 ADD SWAP4 ADD SWAP1 PUSH2 0x1380 JUMP JUMPDEST PUSH1 0x0 DUP4 DUP2 MSTORE PUSH1 0x20 DUP2 KECCAK256 PUSH1 0x1F DUP5 ADD PUSH1 0x5 SHR DUP2 ADD SWAP3 PUSH1 0x20 DUP6 LT PUSH2 0x140E JUMPI JUMPDEST PUSH1 0x1F ADD PUSH1 0x5 SHR ADD SWAP2 JUMPDEST DUP3 DUP2 LT PUSH2 0x1403 JUMPI POP POP PUSH2 0x132F JUMP JUMPDEST DUP2 DUP2 SSTORE PUSH1 0x1 ADD PUSH2 0x13F5 JUMP JUMPDEST SWAP1 SWAP3 POP DUP3 SWAP1 PUSH2 0x13EC JUMP JUMPDEST SWAP1 DUP2 SLOAD PUSH1 0x1 PUSH1 0x40 SHL DUP2 LT ISZERO PUSH2 0x1024 JUMPI PUSH1 0x1 DUP2 ADD DUP1 DUP5 SSTORE DUP2 LT ISZERO PUSH2 0x12F3 JUMPI PUSH2 0x1213 SWAP3 PUSH1 0x0 MSTORE PUSH1 0x20 PUSH1 0x0 KECCAK256 ADD PUSH2 0x1309 JUMP JUMPDEST DUP1 SLOAD PUSH1 0x1 PUSH1 0x40 SHL DUP2 LT ISZERO PUSH2 0x1024 JUMPI PUSH2 0x1464 SWAP2 PUSH1 0x1 DUP3 ADD DUP2 SSTORE PUSH2 0x12D7 JUMP JUMPDEST PUSH2 0x14DB JUMPI PUSH1 0x6 PUSH1 0xC0 PUSH2 0x1213 SWAP4 PUSH1 0x1 DUP1 PUSH1 0xA0 SHL SUB DUP2 MLOAD AND PUSH1 0x1 PUSH1 0x1 PUSH1 0x60 SHL SUB PUSH1 0xA0 SHL DUP6 SLOAD AND OR DUP5 SSTORE PUSH2 0x149C PUSH1 0x20 DUP3 ADD MLOAD PUSH1 0x1 DUP7 ADD PUSH2 0x1309 JUMP JUMPDEST PUSH1 0x40 DUP2 ADD MLOAD PUSH1 0x2 DUP6 ADD SSTORE PUSH2 0x14B7 PUSH1 0x60 DUP3 ADD MLOAD PUSH1 0x3 DUP7 ADD PUSH2 0x1309 JUMP JUMPDEST PUSH2 0x14C8 PUSH1 0x80 DUP3 ADD MLOAD PUSH1 0x4 DUP7 ADD PUSH2 0x1309 JUMP JUMPDEST PUSH1 0xA0 DUP2 ADD MLOAD PUSH1 0x5 DUP6 ADD SSTORE ADD MLOAD SWAP2 ADD PUSH2 0x1309 JUMP JUMPDEST PUSH4 0x4E487B71 PUSH1 0xE0 SHL PUSH1 0x0 MSTORE PUSH1 0x0 PUSH1 0x4 MSTORE PUSH1 0x24 PUSH1 0x0 REVERT JUMPDEST PUSH2 0x1509 SWAP1 PUSH1 0x20 PUSH1 0x40 MLOAD SWAP3 DUP3 DUP5 DUP1 SWAP5 MLOAD SWAP4 DUP5 SWAP3 ADD PUSH2 0x1153 JUMP JUMPDEST DUP2 ADD SUB SWAP1 KECCAK256 SWAP1 JUMP JUMPDEST ISZERO PUSH2 0x1518 JUMPI JUMP JUMPDEST PUSH1 0x40 MLOAD PUSH3 0x461BCD PUSH1 0xE5 SHL DUP2 MSTORE PUSH1 0x20 PUSH1 0x4 DUP3 ADD MSTORE PUSH1 0xE PUSH1 0x24 DUP3 ADD MSTORE PUSH14 0x416B736573204469746F6C616B21 PUSH1 0x90 SHL PUSH1 0x44 DUP3 ADD MSTORE PUSH1 0x64 SWAP1 REVERT JUMPDEST PUSH1 0x1 PUSH1 0x1 PUSH1 0x40 SHL SUB DUP2 GT PUSH2 0x1024 JUMPI PUSH1 0x5 SHL PUSH1 0x20 ADD SWAP1 JUMP JUMPDEST SWAP1 DUP2 SLOAD PUSH2 0x1571 DUP2 PUSH2 0x154E JUMP JUMPDEST SWAP3 PUSH2 0x157F PUSH1 0x40 MLOAD SWAP5 DUP6 PUSH2 0x10DC JUMP JUMPDEST DUP2 DUP5 MSTORE PUSH1 0x0 SWAP1 DUP2 MSTORE PUSH1 0x20 DUP1 DUP3 KECCAK256 DUP2 DUP7 ADD JUMPDEST DUP5 DUP5 LT PUSH2 0x159E JUMPI POP POP POP POP POP JUMP JUMPDEST PUSH1 0x1 DUP4 DUP2 SWAP3 PUSH2 0x15AC DUP6 PUSH2 0x11D5 JUMP JUMPDEST DUP2 MSTORE ADD SWAP3 ADD SWAP4 ADD SWAP3 SWAP1 PUSH2 0x1590 JUMP INVALID LOG2 PUSH5 0x6970667358 0x22 SLT KECCAK256 0xE2 BYTE 0xA9 LT 0xAE SHR 0xE5 0xB0 SWAP2 0x28 BLOCKHASH ORIGIN DUP12 MSIZE PUSH8 0xF026745566399AD1 EXTCODESIZE 0xC8 BASEFEE DELEGATECALL PUSH1 0x6E SWAP11 ADDMOD DUP13 PUSH5 0x736F6C6343 STOP ADDMOD SGT STOP CALLER "},"methodIdentifiers":{"getKoi(string)":"657a310f","getKoiHistory(string)":"37fd1164","koiHistories(string,uint256)":"856589de","koiRegistry(string)":"3daa0a5d","mintCertificate(string,string,string,string,string,uint256,string,string,string,string,string,string)":"21de3d81","transferOwnership(string,address,string,uint256,string,string,string,string)":"65bd6b48","updateKoiStats(string,uint256,string,string,string,string,string)":"ef9423e4"}}}}}